:020000040000FA
:100000000C94B3010C94E4010C94E4010C94E4010D
:100010000C94E4010C94E4010C94E4010C94E401CC
:100020000C94E4010C9487150C9487150C94871597
:100030000C94E4010C94E4010C94E4010C94E401AC
:100040000C94E4010C943F170C94E4010C94E4012B
:100050000C94E4010C94E4010C94E4010C94ED1371
:100060000C94E4010C945D150C9433150C94E4018C
:100070000C94E4010C94E4010C94E4010C94E4016C
:100080000C9411170C94E4010C94E4010C94E40119
:100090000C9409150C94DF140C94E4010C94911544
:1000A0000C94E4010C94E4010C94E3160C94E40128
:1000B0000C94E4010C94E4010C94E4010C94B51646
:1000C0000C94E4010C94E4010C94E4010C94B51438
:1000D0000C948B140C94E4010C9461140C9437145C
:1000E0000C94E4010C9487040C9435090C94F001F1
:1000F0000C94D2080C94DC130C94980C0C94F90218
:100100000C942B040C94E4020C946C0F0C940703D5
:100110000C94C60C0C941F030C94AD080C9418029C
:100120000C94810F0C9478040C94EF020C94B20F91
:100130000C9446130C94600F0C948C120C941A03BC
:100140000C94110D0C94FF040C94E8020C94FD0C1B
:100150000C940E020C94E6010C94890C0C94540F30
:100160000C94A80E0C941B0D0C94C4110C94B008A4
:100170000C94200D0C9485110C94BF080C94E00293
:100180000C94D00C0C9415030C942E020C940402C5
:100190000C9432040C949B040C946D170C94030380
:1001A0000C94840C0C940D030C940E130C941103FA
:1001B0000C94BC0C0C9452070C94F30C0C94E90CAA
:1001C0000C94F50F0C94EC020C94AE080C94DA022B
:1001D0000C9423020C94AB110C94FF020C94980F16
:1001E0000C949B130C94A9040C94CA0A0C94060951
:1001F0000C944C050C94950B0C941B030C94B40CB0
:100200000C94F5020C948E0C0C94780D0C949D0AB1
:100210000C94D9080C9422020C94AC0C0C94070D8D
:100220000C94C8120C94DA0C0C94FA010C9424135C
:100230000C94E90F0C94430F0C9404100C94A20C32
:100240000C94AF0800002100240027002A002D0094
:100250003000330001010000040107010A01000021
:100260002200250028002B002E003100340002015E
:100270000000050108010B010000200023002600FA
:1002800029002C002F0032000001000003010601AC
:10029000090105050505070508080808020202020C
:1002A0000A0A080804040404010101010101010112
:1002B0000303030303030303040707070C0C0C0CDD
:1002C0000C0C0C0C020202020606060606060606C6
:1002D0000B0B0B0B0B0B0B0B010210202008081053
:1002E00020401020408002010201080402010102A6
:1002F000040810204080804020100804020180047F
:1003000002018040201008040201080402010102D9
:1003100004081020408001020408102040800000E2
:100320000A0B02090C0D0E0807030401000000006F
:1003300000000000000000000000000000000000BD
:10034000000000000000000000001211100000007A
:10035000000000000000000000000000000000009D
:10036000000000006D1711241FBECFEFD1E2DEBFE9
:10037000CDBF00E00CBF13E0A0E0B2E0E2E9F2E4A0
:1003800000E00BBF02C007900D92A634B107D9F769
:100390002AE0A6E4B3E001C01D92AF31B207E1F755
:1003A00011E0C3EBD1E000E006C021970109802FE6
:1003B000FE010E940B20C23BD10780E00807A9F78D
:1003C0000E9435190C9447210C940000862FE0916F
:1003D0008504F0918604309711F0BA0119940895BC
:1003E000862FE0918304F0918404309711F0BA01D4
:1003F00019940895862FE0918104F091820430973A
:1004000011F0BA0119940895862FE0917F04F091BC
:100410008004309711F0BA0119940895862FE09165
:100420007D04F0917E04309711F0BA01199408957B
:10043000862FE0917B04F0917C04309711F0BA0193
:10044000199408950895862F642FE0918704F09100
:100450008804309711F0A90119940895E091890456
:10046000F0918A04309709F019940895CF93DF939F
:10047000FC01A081B181109701F1EC01ED91FC919B
:1004800011970190F081E02D69EFCD0119958881D8
:100490009981DC01ED91FC910190F081E02D62E009
:1004A000199588819981DC01ED91FC910190F08191
:1004B000E02D65E0DF91CF911994DF91CF91089500
:1004C000A0911608B0911708ED91FC911197019039
:1004D000F081E02D682FCD0119941F93CF93DF9306
:1004E000182FEB018091DD079091DE0768177907DF
:1004F00060F48091DB079091DC07C80FD91F188347
:1005000080E0DF91CF911F910895E0910A08F0916A
:100510000B08309711F481E0F4CF81E08093DA0783
:100520008091F6079091F70719958091DD079091DA
:10053000DE07C817D90778F7DCCFCF93DF93EC013C
:10054000FB0130E020E0C901880F991F8C179D073F
:1005500078F44081DB014D93BD011197918197950E
:1005600099279795942B9C932F5F3F4F3296EBCF13
:10057000C901DF91CF9108958150823108F05AC0AE
:10058000E82FF0E08827E853FD4F8F4F0C940B20A5
:10059000E802EC02DA02E002E4021A03EF02F502DA
:1005A000F902FF02030307030D0311031A031503E6
:1005B0001B031F03809180008F7780938000089534
:1005C000809180008F7DF9CF80918000877FF5CF6B
:1005D00084B58F7784BD089584B58F7DFBCF8091DE
:1005E000B0008F778093B00008958091B0008F7D28
:1005F000F9CF809190008F7780939000089580913B
:1006000090008F7DF9CF80919000877FF5CF80910A
:10061000A0008F778093A00008958091A0008F7D27
:10062000F9CF8091A000877FF5CF809120018F774F
:10063000809320010895809120018F7DF9CF8091D2
:100640002001877FF5CFCF93DF93282F30E0F9018A
:10065000E25EFC4F8491F901E852FD4FD491F9011B
:10066000EE56FD4FC491CC23A1F081110E94BC0233
:10067000EC2FF0E0EE0FFF1FE858FD4FA591B4916D
:10068000EC91ED2381E090E009F480E0DF91CF91DF
:10069000089580E090E0FACF1F93CF93DF93282F47
:1006A00030E0F901E25EFC4F8491F901E852FD4F20
:1006B000D491F901EE56FD4FC491CC23A9F0162F29
:1006C00081110E94BC02EC2FF0E0EE0FFF1FE25AF6
:1006D000FD4FA591B4918FB7F894EC91111108C01A
:1006E000D095DE23DC938FBFDF91CF911F910895CA
:1006F000DE2BF8CFCF93DF9390E0FC01E852FD4F63
:1007000024918E569D4FFC0184918823C9F090E07E
:10071000880F991FFC01EC5BFD4FA591B491FC0182
:10072000E25AFD4FC591D49161110DC09FB7F89465
:100730008C91209582238C938881282328839FBFC6
:10074000DF91CF910895623051F49FB7F8943C91B6
:10075000822F809583238C93E8812E2BEFCF8FB748
:10076000F894EC912E2B2C938FBFEACF863308F0B0
:10077000865320917B00982F9870277F922B90931F
:100780007B008770806480937C0080917A00806415
:1007900080937A0080917A0086FDFCCF809178006A
:1007A0009091790008953FB7F8948091D00490918A
:1007B000D104A091D204B091D30426B5A89B05C062
:1007C0002F3F19F00196A11DB11D3FBFBA2FA92FD0
:1007D000982F8827BC01CD01620F711D811D911DCD
:1007E00042E0660F771F881F991F4A95D1F7089539
:1007F0008F929F92AF92BF92CF92DF92EF92FF9231
:100800006B017C010E94D3034B015C01C114D10434
:10081000E104F104B9F00E94D303681979098A0947
:100820009B09683E73408105910580F321E0C21A5F
:10083000D108E108F10888EE880E83E0981EA11C1B
:10084000B11CE4CFFF90EF90DF90CF90BF90AF90BE
:100850009F908F900895009721F0805C9F4F0C949B
:1008600036020895AF92BF92CF92DF92EF92FF923D
:100870000F931F93CF93DF936C017B018B01040FC8
:10088000151FEB015E01AE18BF08C017D10759F064
:100890006991D601ED91FC910190F081E02DC601A6
:1008A0001995892B79F7C501DF91CF911F910F9190
:1008B000FF90EF90DF90CF90BF90AF900895FC0134
:1008C000A089B1898C91A689B78982FD0FC09C91BE
:1008D000818D8F5F8F73228D821749F0A18DAE0FAE
:1008E000BF2FB11D5D969C93818F08958C910895C3
:1008F000FC01538D448D252F30E0842F90E0821B26
:10090000930B541710F0CF96089501970895FC01AA
:10091000918D828D981761F0A28DAE0FBF2FB11D02
:100920005D968C91928D9F5F9F73928F90E008955A
:100930008FEF9FEF0895FC01918D828D981731F014
:10094000828DE80FF11D858D90E008958FEF9FEF68
:100950000895FC01918D228D892F90E0805C9F4F3E
:10096000821B91098F739927089584E295E00E9474
:10097000A90421E0892B09F420E0822F089581EC5D
:1009800095E00E94A90421E0892B09F420E0822F40
:1009900008958EE596E00E94A90421E0892B09F4D0
:1009A00020E0822F08958BEF96E00E94A90421E0B9
:1009B000892B09F420E0822F0895FC01A48DA80F53
:1009C000B92FB11DA35ABF4F2C91848D90E0019691
:1009D0008F739927848FA689B7892C93A089B189B1
:1009E0008C91837080648C93938D848D981306C052
:1009F0000288F389E02D80818F7D80830895EF92B6
:100A0000FF920F931F93CF93DF93EC0181E0888FC8
:100A10009B8D8C8D98131AC0E889F989808185FF98
:100A200015C09FB7F894EE89FF896083E889F9893A
:100A300080818370806480839FBF81E090E0DF913C
:100A4000CF911F910F91FF90EF900895F62E0B8D8F
:100A500010E00F5F1F4F0F731127E02E8C8D8E114A
:100A60000CC00FB607FCFACFE889F989808185FFB1
:100A7000F5CFCE010E94DD04F1CFEB8DEC0FFD2F01
:100A8000F11DE35AFF4FF0829FB7F8940B8FEA896C
:100A9000FB8980818062CFCFCF93DF93EC01888D7B
:100AA0008823B9F0AA89BB89E889F9898C9185FDE9
:100AB00003C0808186FD0DC00FB607FCF7CF8C9177
:100AC00085FFF2CF808185FFEDCFCE010E94DD044E
:100AD000E9CFDF91CF91089580E090E0892B29F054
:100AE0000E94D30481110E94000080E090E0892BD5
:100AF00029F00E94C90481110E94000080E090E06A
:100B0000892B29F00E94BF0481110E94000080E01F
:100B100090E0892B29F00E94B50481110C9400000B
:100B200008955F926F927F928F929F92AF92BF9241
:100B3000CF92DF92EF92FF920F931F93CF93DF93A9
:100B40005C016901DA015C90232B19F4CC24CA946E
:100B5000DC2C8A013A01660E771ED0E0C0E0F12C51
:100B6000E12C87E0882E912CF50180819181D801BC
:100B70006C910C2E01C0660F0A94EAF765296F7715
:100B8000DC01ED91FC910190F081E02D1995BFEF12
:100B9000EB1AFB0AF801608170E0C4018C1B9D0B0D
:100BA00002C0759567958A95E2F7562E2196C73053
:100BB000D10558F1CE14DF0441F1D5018D919C91FE
:100BC000652D6F77DC01ED91FC910190F081E02DB6
:100BD0001995BFEFEB1AFB0A551C5524551C279796
:100BE000E6CFEC14FD0408F4BFCFDF91CF911F9145
:100BF0000F91FF90EF90DF90CF90BF90AF909F90BC
:100C00008F907F906F905F9008950F5F1F4F6016D9
:100C1000710639F7209749F3EC14FD0430F7F5011C
:100C20008081918161E070E001C0660FCA95EAF7AA
:100C300061506521DC01ED91FC910190F081E02D86
:100C4000DF91CF911F910F91FF90EF90DF90CF90A8
:100C5000BF90AF909F908F907F906F905F9019940E
:100C60001F93CF93DF931F921F92CDB7DEB7182F3C
:100C70007A8369838091D8079091D9070097C9F04A
:100C8000DC01ED91FC910190F081E02D1031B8F480
:100C900061157044A0F4612F606E199522E030E078
:100CA000AE014F5F5F4F62E070E088ED97E00E9419
:100CB00091050F900F90DF91CF911F91089560EFF4
:100CC00019958091D8079091D907DC01ED91FC919D
:100CD0000190F081E02D6FE619958091D8079091F1
:100CE000D907DC01ED91FC910190F081E02D612F9D
:100CF000199522E030E0AE014F5F5F4F62E070E097
:100D000088ED97E00E9491058091D8079091D907CE
:100D1000DC01ED91FC910190F081E02D67EF1995D8
:100D2000C8CFEF92FF920F931F93CF93DF93C82FFB
:100D30008091D8079091D9070097C9F17A018B016A
:100D4000DC01ED91FC910190F081E02D60EF1995AF
:100D50008091D8079091D907DC01ED91FC91019029
:100D6000F081E02D6C2F1995E7010E0D1F1DC017A6
:100D7000D10759F030E020E0AE0161E070E088ED8D
:100D800097E00E9491052196F2CF8091D80790912B
:100D9000D907DC01ED91FC910190F081E02D67EF26
:100DA000DF91CF911F910F91FF90EF901994DF91F8
:100DB000CF911F910F91FF90EF900895CF92DF9206
:100DC000EF92FF920F931F93CF93DF93FC01E058B4
:100DD000FF4FE080EE2009F45CC0EC01C05CDF4F07
:100DE000A881B981109709F454C0FC01EF57FF4F57
:100DF000C080D180F60111810081ED91FC911197A5
:100E00000190F081E02D60EFCD01199588819981E5
:100E1000DC01ED91FC910190F081E02D69E71995DD
:100E200088819981DC01ED91FC910190F081E02DA8
:100E3000602F199588819981DC01ED91FC910190D9
:100E4000F081E02D612F1995F12C01E010E00F5F8A
:100E50001F4FE016F10659F030E020E0A601400FE8
:100E6000511F61E070E0CE010E949105F0CF8881B2
:100E70009981DC01ED91FC910190F081E02D67EF0B
:100E8000DF91CF911F910F91FF90EF90DF90CF9066
:100E90001994DF91CF911F910F91FF90EF90DF9008
:100EA000CF900895009711F00C94DE0608952091DC
:100EB0005404260F3327331F21323105ECF42091DF
:100EC000FA04FC0190E080E0243069F082E00895AB
:100ED000A09154042191AC014E5C5B4FA40FB52F3F
:100EE000B11D2C930196861798F380915404680FD6
:100EF0006093540480E0089581E008951092FA040C
:100F000081E08093F9041092D40461E084E10E94AE
:100F10004C0361E085E10E944C03E9EBF0E0808145
:100F20008E7F808380818D7F808388E48093B8006A
:100F300085E48093BC000895CF93DF9391E0909374
:100F400031048823B9F0C091B800D091BA008091E3
:100F5000BC008A7B8093BC0060E084E10E944C036B
:100F600060E085E10E944C030E947E07D093BA00A6
:100F7000C093B800DF91CF9108958F929F92AF9266
:100F8000BF92CF92DF92EF92FF920F931F93CF9376
:100F9000DF93D0912305D13208F0D7C0182FC0912C
:100FA00022050E94D3036B017C018091FA04811118
:100FB0006BC082E08093FA041093F9048FEF809362
:100FC000F8041092F704D093F604A2E0B5E0E6ED41
:100FD000F4E080E0D81391C01092D5048091D5043C
:100FE000CC0FC82BC093D5048091D404813009F074
:100FF00088C01092D4040E94D3036B017C018091BD
:10100000D5048093BB008091FC049091FD04A091D5
:10101000FE04B091FF04892B8A2B8B2BA1F00E9438
:10102000D3030091FC041091FD042091FE04309143
:10103000FF046C197D098E099F09061717072807F9
:10104000390708F442C08091BC0083FDD8CF85ECFD
:101050008093BC000E94D3036B017C018091FA0451
:10106000823009F450C08091F8048F3F09F46FC0BA
:101070008091F804803209F46CC08091F8048033C8
:1010800009F469C084E026C08091FC049091FD04BD
:10109000A091FE04B091FF04892B8A2B8B2B09F4BD
:1010A00084CF0E94D3038090FC049090FD04A09014
:1010B000FE04B090FF046C197D098E099F09861605
:1010C0009706A806B90608F070CF8091FB040E942D
:1010D0009C0785E0109201051092230510920005EF
:1010E000DF91CF911F910F91FF90EF90DF90CF9004
:1010F000BF90AF909F908F9008959D9191938F5F37
:1011000069CF85EEA5CF8091FC049091FD04A0915C
:10111000FE04B091FF04892B8A2B8B2B09F49ECF00
:101120000E94D3030091FC041091FD042091FE0461
:101130003091FF046C197D098E099F090617170766
:101140002807390708F08ACFC0CF81E0C3CF80E0FD
:10115000C1CF82E0BFCF83E0BDCF08950895089549
:10116000E091300480912F04E81730F4F0E0E15F63
:10117000FB4F808190E008958FEF9FEF089590914D
:10118000300480912F042FEF3FEF981748F4E92F98
:10119000F0E0E15FFB4F208130E09F5F90933004EF
:1011A000C901089580912F0490913004891B990BF7
:1011B0000895CF92DF92EF92FF920F931F93CF93F8
:1011C000DF937C01CB018A0120910005222389F065
:1011D000EB016B01C40ED51ECC15DD0569F06991DC
:1011E000D701ED91FC910190F081E02DC701199597
:1011F000F3CF642F0E945707C801DF91CF911F9151
:101200000F91FF90EF90DF90CF900895CF93DF93F1
:101210001F92CDB7DEB76983209100052223F9F034
:1012200020912305203258F021E030E0FC01338387
:10123000228390E080E00F90DF91CF91089580911C
:101240000105E82FF0E0EE5FFA4F998190838F5F00
:10125000809301058093230581E090E0ECCF61E06D
:10126000CE0101960E945707F7CF90E080E00895E5
:10127000DF92EF92FF920F931F93CF93DF93EC01D6
:10128000D62E7A0189018881803308F067C061E039
:101290008D2D0E947A038881282F30E0F901EE0F0E
:1012A000FF1FE20FF31FE650F74F9D2D9F736081E4
:1012B000607C692B608320E232E02E193F0937FF02
:1012C00002C02D5F3F4F359527953595279529838A
:1012D00020E639E0201B310B37FF02C02D5F3F4F66
:1012E00035952795359527952A832CE0622F0E9406
:1012F000FF1F829FB001112430E020E0AB01420FBC
:10130000531FFA01EE0FFF1FE40FF51FE650F74FD2
:10131000908196FD16C02F5F3F4F2C30310571F73D
:10132000813029F51092800082E080938100109234
:10133000850010928400B19A80916F008260809342
:101340006F00E8818E2F90E0FC01EE0FFF1FE80F89
:10135000F91FE650F74F8081806480838881DF9198
:10136000CF911F910F91FF90EF90DF900895823001
:1013700061F4109290008093910010929500109269
:10138000940088BB80937100DCCF833069F41092A5
:10139000A00082E08093A1001092A5001092A4000A
:1013A00089BB80937200CDCF8111CBCF10922001E9
:1013B00082E08093210110922501109224018ABBC2
:1013C00080937300BECFAF92BF92CF92DF92EF9225
:1013D000FF920F931F93CF93DF936B017A01EC0180
:1013E000C55FDB4F28813CE0389F8001399F100D9D
:1013F0001124A0908A09B12C27FF1FC0FB01118284
:10140000108288818F5F888388819801280F311D21
:1014100087FD3A95F6012A153B051CF488818C302E
:10142000C4F180819181049680349C4908F473C092
:10143000F60180819181049670C088819801280FFF
:10144000311D87FD3A952A153B05DCF68881A801F8
:10145000480F511D87FD5A95FA01EE0FFF1FE40F4B
:10146000F51FE650F74F808186FFCBCF8881F801CA
:10147000E80FF11D87FDFA95CF01EE0FFF1FE80F72
:10148000F91FE650F74F808160E08F730E944C0394
:10149000B8CF808191812881A801420F511D27FD7D
:1014A0005A959A01FA01EE0FFF1FE20FF31FE65063
:1014B000F74F21813281820F931FF701918380833F
:1014C00088819801280F311D87FD3A95F901EE0FAB
:1014D000FF1FE20FF31FE650F74F808186FF22C007
:1014E0008881080F111D87FD1A95F801EE0FFF1F67
:1014F000E00FF11FE650F74F808161E08F73DF91BD
:10150000CF911F910F91FF90EF90DF90CF90BF9000
:10151000AF900C944C0380E49CE9F70191838083A5
:101520008FEF8883DF91CF911F910F91FF90EF9004
:10153000DF90CF90BF90AF900895CF938031B0F4FB
:1015400021E030E0082E02C0220F331F0A94E2F798
:101550004091C5045091C604672B51F420953095F5
:10156000242335233093C6042093C504CF910895D6
:10157000242B352B3093C6042093C50490910A0484
:101580009111F4CFC82F0E94B603BC018C2FCF91CC
:101590000C9430064F925F926F927F928F929F923F
:1015A000AF92BF92CF92DF92EF92FF920F931F9371
:1015B000CF93DF93893008F0A7C08F5FC82FCC0F7F
:1015C000CC0FCC0F4C2EC73410F056E4452ED62F3E
:1015D00038EF532E5C0E852C912CC401880F991F77
:1015E0009C012856384F5901052DD12CC12C10E0F3
:1015F000772473940415C8F58EEF800F8434F8F4C3
:10160000F601E80DF91DE55EF74F90819230B8F4D0
:10161000872D8D2366246394811101C0612C76018E
:10162000EE0CFF1C913089F4172939ECE30EF11C04
:10163000F501EE0DFF1D862D90E091838083770CE0
:101640000F5F8FEFC81AD80AD5CF882371F3F7013F
:10165000E753FF4FEA0DFB1D80819181019729F32C
:1016600062E0802F0E947A03E0CF10FF05C06D2F4B
:101670006170852D0E944C0311FF06C06D2F6270B2
:1016800089EF8C0F0E944C0312FF06C06D2F64700F
:101690008AEF8C0F0E944C0313FF06C06D2F6870F9
:1016A0008BEF8C0F0E944C0314FF06C06D2F6071EE
:1016B0008CEF8C0F0E944C0315FF06C06D2F6072DB
:1016C0008DEF8C0F0E944C0316FF06C06D2F6074C7
:1016D0008EEF8C0F0E944C0317FF16C06D2F6078A1
:1016E0008FEF8C0FDF91CF911F910F91FF90EF90B3
:1016F000DF90CF90BF90AF909F908F907F906F9032
:101700005F904F900C944C03DF91CF911F910F91FC
:10171000FF90EF90DF90CF90BF90AF909F908F9011
:101720007F906F905F904F9008958F929F92AF92AD
:10173000BF92CF92DF92EF92FF920F931F93CF93BE
:10174000DF93EB01863408F098C0082F10E0F80111
:10175000E55EF74F9081933009F49CC0943009F016
:101760008CC08250843408F081C0F801E654FC4FEC
:10177000C080D12C7601EE0CFF1C4B01603282E060
:1017800078070CF03EC0F701EC0DFD1DE557F64F54
:101790008181A8E88A2E912C881A910887FD93945C
:1017A000880C991C880C991C092C000CAA08BB08F1
:1017B000828128E532E0281B310987FD3395220F0D
:1017C000331F220F331F032E000C440B550B281917
:1017D00039094A095B09DB01653B710514F0A4EB8B
:1017E000B0E0B7FF02C0B0E0A0E00E94C61F24EB4B
:1017F00030E040E050E00E949C1F820E931EA41E29
:10180000B51EF701EC0DFD1DE557F64F2081203385
:1018100068F5318188E890E0831B910937FD939545
:10182000880F991F880F991F881699067CF03281BE
:1018300088E592E0831B910937FD9395880F991FE6
:10184000880F991F881699060CF4C4010297880F17
:10185000991F4FB7F89430E0F901EE0FFF1FE20F28
:10186000F31FE650F74F928381834FBF000F111F84
:10187000F801EF59F74FD183C083DF91CF911F91CA
:101880000F91FF90EF90DF90CF90BF90AF909F901F
:101890008F900895F82E8EEF800F8C3020F084ED1D
:1018A000800F833018F761E08F2D0E947A03209714
:1018B00029F460E08F2D0E944C03D8CFCF3FD10593
:1018C00011F461E0F7CFF801E25EFC4FE491E150E2
:1018D000E23108F0B0C0F0E08827EE58F34F8F4FA8
:1018E0000C940B20840C890C8E0C980CA20C1B0DF4
:1018F000AC0CB40CBC0CC60CD00CDA0CE90CF30C20
:101900001B0DFD0C070D110D84B5806884BDC7BD8E
:10191000ADCF84B5806284BDC8BDA8CF8091800062
:10192000806880938000D0938900C09388009ECF08
:1019300080918000806280938000D0938B00C09360
:101940008A0094CF80918000886080938000D0933B
:101950008D00C0938C008ACF8091B0008068809306
:10196000B000C093B30082CF8091B00080628093BA
:10197000B000C093B4007ACF8091900080688093CB
:101980009000D0939900C093980070CF8091900000
:10199000806280939000D0939B00C0939A0066CFA2
:1019A00080919000886080939000D0939D00C093B8
:1019B0009C005CCF8091A00080688093A000809103
:1019C000A0008F7B8093A000D093A900C093A800B3
:1019D0004DCF8091A00080628093A000D093AB0097
:1019E000C093AA0043CF8091A00088608093A0009C
:1019F000D093AD00C093AC0039CF809120018068B6
:101A000080932001D0932901C09328012FCF80918A
:101A10002001806280932001D0932B01C0932A0182
:101A200025CF80912001886080932001D0932D01E3
:101A3000C0932C011BCFC038D1050CF042CF39CF59
:101A40009EEF980F943480F4E82FF0E0DF01A55E5C
:101A5000B74F9C91913041F4EE0FFF1FEF59F74FB4
:101A6000608371830C944C030895FF920F931F932E
:101A7000CF93DF931F921F92CDB7DEB7082F10E0F0
:101A8000F801E557FB4F9081F62EF92200501C4FCC
:101A9000411104C0F80190819F1511F12F2D30E004
:101AA0003A832983A091D807B091D9071097B1F054
:101AB000682F6F706069ED91FC9111970190F08132
:101AC000E02DCD01199522E030E0AE014F5F5F4F70
:101AD00062E070E088ED97E00E949105F801F082E5
:101AE0000F900F90DF91CF911F910F91FF9008956C
:101AF0000F931F93CF93DF93893008F071C0282F85
:101B000030E0F901EC56FB4F6083672B09F468C0A5
:101B1000082F25573B4FF9011081D82FDD0FDD0F1E
:101B2000DD0F8EEF8D0F843450F4C12FC17010FF84
:101B300007C08D2F0E942303C1E0892B09F4C0E068
:101B40008FEF8D0F843448F411FF07C081E08D0FB3
:101B50000E942303892B09F0C26012FF07C082E0B4
:101B60008D0F0E942303892B09F0C46013FF07C067
:101B700083E08D0F0E942303892B09F0C86014FFB6
:101B800007C084E08D0F0E942303892B09F0C061F8
:101B900015FF07C085E08D0F0E942303892B09F0F4
:101BA000C062D034A1F016FF07C086E08D0F0E94FE
:101BB0002303892B09F0C064DF3349F017FF07C006
:101BC00087E08D0F0E942303892B09F0C06841E054
:101BD0006C2F802FDF91CF911F910F910C94350DB9
:101BE000DF91CF911F910F910895A82FB0E0A654D7
:101BF000BC4F9C91292F30E0F901EE0FFF1FE20F3F
:101C0000F31FE557F64FE0812E2F30E0F901EE0F7C
:101C1000FF1FE20FF31FE650F74F80818F7B808319
:101C20008091B803981308C0992319F091509093AC
:101C3000B8038FEF8C9308958823D9F3E091B9030B
:101C4000EF5FE093B903F0E0EB5BFC4F9083F1CFE3
:101C5000FC0101900020E9F73197BF01681B790B67
:101C6000AC0181E70C949106CF93DF93DB01909157
:101C7000B803903378F53091B903682F70E0FB0119
:101C8000E654FC4F3323E1F0C32FD0E0CB5BDC4FB5
:101C90008881808331503093B903808123E0829F13
:101CA000C00111248557964F1A161B0674F414169A
:101CB00015065CF49A01AD01DF91CF910C943809BF
:101CC00090839F5F9093B803E8CF20E639E040E22D
:101CD00052E0F2CF8DE292E0DF91CF910C94280E8A
:101CE00085ED8093BC008091FC049091FD04A0914F
:101CF000FE04B091FF040796A11DB11D23E0B69527
:101D0000A795979587952A95D1F72091BC0024FD3A
:101D100003C01092FA0408954091FC045091FD0410
:101D20006091FE047091FF04452B462B472B69F30D
:101D30000097A105B10541F02AE22A95F1F700C00C
:101D40000197A109B109E1CF8091FB040C949C0794
:101D50008F929F92BF92CF92DF92EF92FF920F935A
:101D60001F93CF93DF93C82ED12CE601C856D84FCE
:101D7000FE01ED57FF4F90819F3709F4A1C09630C7
:101D800061F490910904992341F06630710529F0BE
:101D9000109209049FEF909300027B01182F0EEF21
:101DA000080F043408F564307105F1F0F601E654CB
:101DB000FC4F80818033C0F490E0FC01EE0FFF1FE8
:101DC000E80FF91FE557F64FE0818E2F90E0FC01F8
:101DD000EE0FFF1FE80FF91FE650F74F808186FFD7
:101DE00003C0812F0E94F50D5AECB52EB10E8FE085
:101DF0008B1558F061E070E032E0E316F10411F069
:101E000070E060E08B2D0E949D0A0434C8F4E12F3D
:101E1000E695E695E695F0E0E557FB4F2081312FFA
:101E2000377081E090E001C0880F3A95EAF7E1143D
:101E3000F10421F03BE0E316F10411F5822B8083DD
:101E40004601880C991CF401EF59F74F118210825A
:101E50008CE0E816F10408F0C8C0F7018827EC5CB4
:101E6000F04F8F4F0C940B20540F810F430F980F9E
:101E7000B20FF50FE90FF50FF50FF50F600F6C0FAF
:101E800080958223DCCF3FE03B15D0F0043420F472
:101E900060E0812F0E947A03CD57DF4F88818F3712
:101EA00079F082E088830CC0043450F460E0812F24
:101EB0000E947A03CD57DF4F88818F3709F018824F
:101EC000DF91CF911F910F91FF90EF90DF90CF9016
:101ED000BF909F908F900895043490F762E0812F17
:101EE0000E947A03CD57DF4F88818F3711F08BE046
:101EF0008883F401EF59F74F81E090E0918380836C
:101F0000DFCF0434E8F6FE01ED57FF4F80818330C8
:101F100021F460E0812F0E944C0361E0812F0E9438
:101F20007A03CD57DF4F88818F3751F281E0BACFE6
:101F30000C3020F084ED810F833010F661E0812FAA
:101F40000E947A0361E0812F0E947A0360E0812F72
:101F50000E944C03CD57DF4F88818F3709F4B0CFF3
:101F600083E0A0CF043408F0ABCFCD57DF4F88819A
:101F70008F3711F084E08883F601E654FC4F8081AE
:101F80008F3FA9F090E0FC01EE0FFF1FE80FF91F53
:101F9000E557F64FE0818E2F90E0FC01EE0FFF1F1A
:101FA000E80FF91FE650F74F808186FD89CF4FEF8C
:101FB0005FEF6FEF7FEF812FDF91CF911F910F9137
:101FC000FF90EF90DF90CF90BF909F908F900C94F8
:101FD000340E1451123008F073CFCD57DF4F888183
:101FE0008F3709F46DCF86E05DCF81E492E0DF9119
:101FF000CF911F910F91FF90EF90DF90CF90BF9006
:102000009F908F900C94280E0F931F93CF93DF9384
:1020100081E080930A0480910904882329F01092BA
:1020200009048FEF80930002E4E9F4E0CBE8D4E008
:10203000A0E0B4E0119219921D9284E0ED39F80706
:10204000C9F70AEB13E0C0E0DFEF8AEC8C0F62E027
:1020500070E0803130F08EEF8C0F843428F461E032
:1020600070E08C2F0E94A80EF801D1938F01CF5FF2
:10207000C63459F71092C6041092C5041092B903E1
:102080001092B80310920A04DF91CF911F910F9123
:1020900008954F925F926F927F928F929F92AF922C
:1020A000BF92DF92EF92FF920F931F93CF93DF9334
:1020B000D82E8B01D42FC22F6F3F760709F490C022
:1020C00081E080930005D0922205109201051092C4
:1020D00023058EEE98E00E9406098C2F0E94BD0712
:1020E0008091B6039091B7038230910538F0880F44
:1020F000991F880F991F05970197F1F70E94D30345
:102100004B015C018091FA0481116CC0CD2FD1325A
:1021100008F0C0E281E08093FA048093F9049FEF15
:102120009093F8041092F7049C0F9093F604809318
:10213000D5049091D5048D2D880F892B8093D504DB
:102140008091D404813009F09EC01092D4040E9482
:10215000D3034B015C018091D5048093BB00809137
:10216000FC049091FD04A091FE04B091FF04892B22
:102170008A2B8B2BA1F00E94D3034090FC0450903B
:10218000FD046090FE047090FF04681979098A09C3
:102190009B09461657066806790608F444C08091E4
:1021A000BC0083FDD8CF85EC8093BC000E94D30394
:1021B0004B015C018091FA04813009F466C0809182
:1021C000F7048C1710F4C091F704A6EDB4E0EFE02B
:1021D000F4E080E08C1761F19D9191938F5FFACFCD
:1021E00000E08CCF8091FC049091FD04A091FE044E
:1021F000B091FF04892B8A2B8B2B09F483CF0E948B
:10220000D3034090FC045090FD046090FE04709055
:10221000FF04681979098A099B094616570668065A
:10222000790608F06FCF8091FB040E949C07C0E004
:1022300010923004C0932F04ED2EF12C8C2F90E0DF
:10224000E816F9060CF043C082E592E00E94280EE1
:10225000D09276030093770306E713E0C801865710
:1022600093408E159F05D4F50F5F1F4F90912F045B
:1022700080913004981791F18EEE98E00E94BF088B
:10228000F8018183EBCF85EE8FCF8091FC04909194
:10229000FD04A091FE04B091FF04892B8A2B8B2BA7
:1022A00009F488CF0E94D3034090FC045090FD04B1
:1022B0006090FE047090FF04681979098A099B09EF
:1022C000461657066806790608F074CFACCF8E150F
:1022D0009F050CF0BDCF8FE692E0B8CFDE5F6D2F8B
:1022E00070E046E753E087E7DF91CF911F910F91B0
:1022F000FF90EF90DF90BF90AF909F908F907F9076
:102300006F905F904F900C949106EF92FF920F9315
:102310001F93CF93DF938956823108F035C0EA01CD
:10232000162FE82FF0E08827E756FE4E8F4F0C94CB
:102330000B20DC13C4114613C4119B13C4112413C6
:10234000C812C411C411C411C411C411AB11C411F9
:102350008C12C4110E13998195FF0AC08BE892E08C
:10236000DF91CF911F910F91FF90EF900C94280E69
:10237000888131E096FB222720F923279871983035
:10238000D1F148F49923A9F0DF91CF911F910F91DA
:10239000FF90EF900895903109F44CC09831A1F767
:1023A0002091000212160CF472C08FEF809300028D
:1023B000EBCF309300058093220510920105109217
:1023C000230502E0011778F4FE01E00FF11D6181A1
:1023D0006795662767958081680F8EEE98E00E946A
:1023E00006090E5FEFCF81E00E94BD0783E191E017
:1023F0000197F1F7C9CF9A814B816630A1F430E89B
:10240000439FB0011124690F711D4D8147954427E9
:1024100047959C81490FDF91CF911F910F91FF90BC
:10242000EF900C944910479544274795490F6FEF5B
:102430007FEFF1CFE0910002E7301CF08BEA92E0F1
:102440008FCF3A819B816630D9F460E8969FA001D6
:102450001124430F511D9D819795992797953C8194
:10246000930FEF5FE093000235E0E302F0011124E7
:10247000E356FB4F8083528341839383248384CF2D
:10248000979599279795930F4FEF5FEFEACF90E0DD
:10249000622F022E000C770B35E0492F50E06417B5
:1024A000750764F0349FF001359FF00D1124E35659
:1024B000FB4F4081481719F09F5FEFCF90E085E018
:1024C000492F50E0641775071CF19830F8F4FA01B1
:1024D00031968E9FD0018F9FB00D1124A356BB4F14
:1024E0003C91849FF001859FF00D1124E356FB4F32
:1024F000308311964D915C911297528341831396CC
:102500003C911397338314963C9134839F5FD8CFCB
:1025100021502093000238CF623078F0898160E842
:10252000869F900111248881820F932F911D00971F
:1025300021F09093B7038093B60380910904811131
:1025400023CFC0E08CEE8C0F823028F466E070E080
:102550008C2F0E94A80ECF5FC634A1F781E0809334
:1025600009041092300410922F0410920105109269
:1025700023050E947E078DEA98E090935304809390
:1025800052048EEA98E09093570480935604FCCE50
:10259000653008F4F9CE18818EEF810F843408F08D
:1025A000F3CE0981EA80FB80CC81E12FF0E0E65494
:1025B000FC4F80818033C0F490E0FC01EE0FFF1FE0
:1025C000E80FF91FE557F64FE0818E2F90E0FC01F0
:1025D000EE0FFF1FE80FF91FE650F74F808186FFCF
:1025E00003C0812F0E94F50D80E8C89FA00111242F
:1025F0004F0D511D90E8E99EB0011124600F711D2F
:10260000812F0E94340E64E070E0812FDF91CF9122
:102610001F910F91FF90EF900C94A80E623008F478
:10262000B3CE8981E0E88E9F900111248881820FCA
:10263000932F911D009729F090930202809301023D
:10264000A3CE81E090E0F8CF623008F49DCE69819E
:1026500070E0123091F08A81F0E88F9FC001112460
:10266000682B792B133049F08B8190E090E4899F9F
:10267000902D88271124682B792B8881DF91CF91A9
:102680001F910F91FF90EF900C94950B80EF0E949B
:1026900060028CE60E946002CEEF8CEC8C0F8031E1
:1026A00008F040C082E00E9460028AE00E9460025E
:1026B00086ED8C0F8330C0F1C43430F484E00E9486
:1026C00060028EE00E9460028EEE8C0F823030F449
:1026D00086E00E94600281E00E9460028FE70E9413
:1026E0006002CF5FC43449F487EFDF91CF911F912F
:1026F0000F91FF90EF900C946002C43470F680E06C
:102700000E94600281E00E9460028BE00E946002F1
:1027100081E00E94600281E00E94600281E00E94EC
:102720006002BBCFCC3020F683E00E94600288E0DC
:102730000E946002C1CF662309F426CEC88180EFD3
:102740000E9460028EE60E9460028C2F0E9460024E
:10275000C63450F6D0E0FE01E55EF74F80810E945E
:102760006002CC0FDD1F8E010F59174FF8018081D9
:102770008F770E946002F801808191819C0120780E
:10278000232B39F0880F892F881F990B8F770E9490
:102790006002CF59D74F888199819C012227307CD4
:1027A000232B09F4A1CF990F880B990F982F881F1D
:1027B0008F770E94600298CF80EF0E9460028AE6C5
:1027C0000E946002CAEC8FE7C03108F48C2F0E948F
:1027D0006002CF5FC031B9F787CF1F920F920FB65B
:1027E0000F9211242F933F938F939F93AF93BF9397
:1027F0008091CC049091CD04A091CE04B091CF04EF
:102800003091CB0423E0230F2D3758F50196A11DFD
:10281000B11D2093CB048093CC049093CD04A0935E
:10282000CE04B093CF048091D0049091D104A091B4
:10283000D204B091D3040196A11DB11D8093D004A0
:102840009093D104A093D204B093D304BF91AF91DD
:102850009F918F913F912F910F900FBE0F901F90DE
:10286000189526E8230F0296A11DB11DD2CF1F9205
:102870000F920FB60F9211240BB60F922F933F9326
:102880004F935F936F937F938F939F93AF93BF9378
:10289000EF93FF9384E295E00E94DD04FF91EF91B6
:1028A000BF91AF919F918F917F916F915F914F9168
:1028B0003F912F910F900BBE0F900FBE0F901F9066
:1028C00018951F920F920FB60F9211240BB60F920C
:1028D0002F933F934F935F936F937F938F939F9328
:1028E000AF93BF93EF93FF9384E295E00E945F0460
:1028F000FF91EF91BF91AF919F918F917F916F91D8
:102900005F914F913F912F910F900BBE0F900FBE93
:102910000F901F9018951F920F920FB60F921124CF
:102920000BB60F922F933F934F935F936F937F93C9
:102930008F939F93AF93BF93EF93FF9381EC95E0B9
:102940000E94DD04FF91EF91BF91AF919F918F9114
:102950007F916F915F914F913F912F910F900BBE9F
:102960000F900FBE0F901F9018951F920F920FB6E9
:102970000F9211240BB60F922F933F934F935F93B7
:102980006F937F938F939F93AF93BF93EF93FF9337
:1029900081EC95E00E945F04FF91EF91BF91AF91B0
:1029A0009F918F917F916F915F914F913F912F9167
:1029B0000F900BBE0F900FBE0F901F9018951F9297
:1029C0000F920FB60F9211240BB60F922F933F93D5
:1029D0004F935F936F937F938F939F93AF93BF9327
:1029E000EF93FF938EE596E00E94DD04FF91EF9157
:1029F000BF91AF919F918F917F916F915F914F9117
:102A00003F912F910F900BBE0F900FBE0F901F9014
:102A100018951F920F920FB60F9211240BB60F92BA
:102A20002F933F934F935F936F937F938F939F93D6
:102A3000AF93BF93EF93FF938EE596E00E945F0400
:102A4000FF91EF91BF91AF919F918F917F916F9186
:102A50005F914F913F912F910F900BBE0F900FBE42
:102A60000F901F9018951F920F920FB60F9211247E
:102A70000BB60F922F933F934F935F936F937F9378
:102A80008F939F93AF93BF93EF93FF938BEF96E05A
:102A90000E94DD04FF91EF91BF91AF919F918F91C3
:102AA0007F916F915F914F913F912F910F900BBE4E
:102AB0000F900FBE0F901F9018951F920F920FB698
:102AC0000F9211240BB60F922F933F934F935F9366
:102AD0006F937F938F939F93AF93BF93EF93FF93E6
:102AE0008BEF96E00E945F04FF91EF91BF91AF9151
:102AF0009F918F917F916F915F914F913F912F9116
:102B00000F900BBE0F900FBE0F901F9018951F9245
:102B10000F920FB60F9211240F900FBE0F901F90BF
:102B200018951F920F920FB60F9211240BB60F92A9
:102B30002F933F934F935F936F937F938F939F93C5
:102B4000AF93BF93EF93FF938091B900887F803656
:102B500009F44DC008F040C0883209F4A9C028F536
:102B6000803109F49DC0C8F4882309F4FBC0883083
:102B700009F496C0FF91EF91BF91AF919F918F9112
:102B80007F916F915F914F913F912F910F900BBE6D
:102B90000F900FBE0F901F901895883109F488C0D0
:102BA000803241F78093F80414C0803409F49DC04A
:102BB00040F48033B9F38833E9F68093F80485EC68
:102BC000B0C0803509F485C0883509F496C08834D2
:102BD00089F60E94700ECECF883909F48CC038F582
:102BE000883729F050F4883611F0803719F683E0E1
:102BF0008093FA041092780457C0883809F47BC097
:102C0000803919F0803809F0B5CF8091780480328E
:102C100008F071C0E091780481E08E0F8093780411
:102C20008091BB00F0E0E85AFB4F80833DC0803BC1
:102C300039F0E0F4803A09F479C0883A09F09ACF83
:102C400084E08093FA041092550410925404E091A9
:102C50005204F091530419958091540481110FC0CE
:102C600081E0809354041092320409C0803C09F43E
:102C7000A6CF883C09F4A3CF883B09F07BCFE09135
:102C8000550481E08E0F80935504F0E0EE5CFB4F1D
:102C900080818093BB00909155048091540429C099
:102CA0008091D5048093BB0085EC8093BC0062CFFB
:102CB0009091F7048091F604981758F5E091F70485
:102CC00081E08E0F8093F704F0E0EA52FB4F8081A1
:102CD000E9CFE091F70481E08E0F8093F7048091B3
:102CE000BB00F0E0EA52FB4F80839091F7048091A3
:102CF000F6049817C8F285E8D8CFE091F70481E090
:102D00008E0F8093F7048091BB00F0E0EA52FB4FF6
:102D100080838091F90481115CCF81E08093D40499
:102D200084EA8093BC001092FA0424CF85EC80934F
:102D3000BC001092FA0480917804803230F4E09163
:102D40007804F0E0E85AFB4F10826091780470E05C
:102D5000E0915604F091570488E594E0199510929B
:102D6000780408CF1092F80434CF1F920F920FB658
:102D70000F9211240BB60F922F933F934F935F93B3
:102D80006F937F938F939F93AF93BF93EF93FF9333
:102D900048E251E064E271E090E080E00E94E309E3
:102DA000FF91EF91BF91AF919F918F917F916F9123
:102DB0005F914F913F912F910F900BBE0F900FBEDF
:102DC0000F901F9018951F920F920FB60F9211241B
:102DD0000BB60F922F933F934F935F936F937F9315
:102DE0008F939F93AF93BF93EF93FF9348EA50E085
:102DF00064EA70E083E090E00E94E309FF91EF91C4
:102E0000BF91AF919F918F917F916F915F914F9102
:102E10003F912F910F900BBE0F900FBE0F901F9000
:102E200018951F920F920FB60F9211240BB60F92A6
:102E30002F933F934F935F936F937F938F939F93C2
:102E4000AF93BF93EF93FF9348E950E064E970E0DC
:102E500082E090E00E94E309FF91EF91BF91AF9172
:102E60009F918F917F916F915F914F913F912F91A2
:102E70000F900BBE0F900FBE0F901F9018951F92D2
:102E80000F920FB60F9211240BB60F922F933F9310
:102E90004F935F936F937F938F939F93AF93BF9362
:102EA000EF93FF9348E850E064E870E081E090E041
:102EB0000E94E309FF91EF91BF91AF919F918F9194
:102EC0007F916F915F914F913F912F910F900BBE2A
:102ED0000F900FBE0F901F9018951092270510921B
:102EE000260588EE93E0A0E0B0E08093280590935B
:102EF0002905A0932A05B0932B052DE032E03093ED
:102F000025052093240545E351E050933105409376
:102F1000300544E351E0509333054093320540E3DC
:102F200051E0509335054093340541E351E050930F
:102F300037054093360542E351E0509339054093FD
:102F4000380546E351E050933B0540933A05109213
:102F50003D0510923E0510923F05109240051092DB
:102F6000C4051092C3058093C5059093C605A09330
:102F7000C705B093C8053093C2052093C10545ED40
:102F800050E05093CE054093CD0544ED50E0509372
:102F9000D0054093CF0540ED50E05093D2054093CB
:102FA000D10541ED50E05093D4054093D30542ED57
:102FB00050E05093D6054093D50546ED50E0509330
:102FC000D8054093D7051092DA051092DB051092D0
:102FD000DC051092DD051092610610926006809368
:102FE000620690936306A0936406B09365063093DF
:102FF0005F0620935E064DEC50E050936B064093C5
:103000006A064CEC50E050936D0640936C0648EC19
:1030100050E050936F0640936E0649EC50E0509399
:103020007106409370064AEC50E05093730640934B
:1030300072064EEC50E05093750640937406109261
:103040007706109278061092790610927A061092FE
:10305000FE061092FD068093FF0690930007A09352
:103060000107B09302073093FC062093FB0625EC82
:1030700030E0309308072093070724EC30E03093CA
:103080000A072093090720EC30E030930C072093C7
:103090000B0721EC30E030930E0720930D0722EC54
:1030A00030E03093100720930F0726EC30E0309388
:1030B000120720931107109214071092150710920F
:1030C00016071092170728E937E01092D9071092D7
:1030D000D8073093DC072093DB0740E450E050939F
:1030E000DE074093DD071092DF071092E007109291
:1030F000E2071092E1071092E3071092E5071092A1
:10310000E4071092E7071092E6071092E907109281
:10311000E8071092EB071092EA071092ED07109261
:10312000EC071092EF071092EE071092F107109241
:10313000F0071092F7071092F6071092F907109215
:10314000F8071092FB071092FA071092FD071092F1
:10315000FC0710920B0810920A081092DA071092DE
:10316000180810921A08109219081092ED0846EEED
:1031700051E05093FF074093FE0740EF51E050931A
:103180000108409300084AEF51E050930308409330
:10319000020844E052E050930508409304084EE0D2
:1031A00052E0509307084093060848E152E05093DC
:1031B00009084093080842E252E050930D084093FA
:1031C0000C0843E252E050930F0840930E0842E58A
:1031D00057E050931108409310083093F307209361
:1031E000F2074BE254E050931308409312083093D7
:1031F000F5072093F4072EE232E030931508209370
:1032000014081092F1081092F0088093F20890933D
:10321000F308A093F408B093F5088FE192E090933F
:10322000EF088093EE08EBE8F9E02FEF48EB5BE066
:1032300080918A098033B8F491E0980F90938A09BD
:10324000808390E0DC01AA0FBB1FA80FB91FA65016
:10325000B74F12965C934E93119733968AE0EB31F9
:10326000F80731F708952083F8CF789484B5826009
:1032700084BD84B5816084BD85B5826085BD85B51A
:10328000816085BD80916E00816080936E00109298
:103290008100809181008260809381008091810013
:1032A00081608093810080918000816080938000A4
:1032B0008091B10084608093B1008091B000816002
:1032C0008093B00080919100826080939100809102
:1032D0009100816080939100809190008160809343
:1032E00090008091A10082608093A1008091A10054
:1032F00081608093A1008091A00081608093A000F4
:10330000809121018260809321018091210181605F
:103310008093210180912001816080932001809120
:103320007A00846080937A0080917A008260809332
:103330007A0080917A00816080937A0080917A008F
:10334000806880937A001092C10085E1809318080C
:103350008091190890911A080E94AF20C091180816
:10336000D0E0CE0101960E94132090931A0880931A
:103370001908FC01EC0FFD1F108212E0DC011C9308
:1033800025E011962C93AE014250510961E373E0A0
:1033900002960E94382185E99BE0909386048093F1
:1033A00085048AEC9AE090938404809383048DE9E9
:1033B0009AE0909382048093810488E79DE0909343
:1033C000800480937F0488EA9EE090937E0480933B
:1033D0007D0480E29DE090937C0480937B0485E8EB
:1033E00091E1909388048093870484E090E1909326
:1033F0008A0480938904E0910B07F0910C071083F5
:10340000E0910B07F0910C071082E0910707F09113
:1034100008071082E0910907F0910A0780E1808394
:1034200010921307E0910F07F091100786E0808358
:10343000E0910D07F0910E07808180618083E0911B
:103440000D07F0910E07808188608083E0910D0761
:10345000F0910E07808180688083E0910D07F091E4
:103460000E0780818F7D80838091ED0881114FC090
:1034700061E08DE00E947A0362ED70E080E090E010
:103480000E94F80361E08DE00E944C0368E270E066
:1034900080E090E00E94F80360E08DE00E944C0321
:1034A00062ED70E080E090E00E94F80361E08DE062
:1034B0000E944C0368E270E080E090E00E94F80314
:1034C00060E08DE00E944C036AEF70E080E090E0E5
:1034D0000E94F803C5E062ED70E080E090E00E9499
:1034E000F80361E08DE00E944C0368E270E080E048
:1034F00090E00E94F80360E08DE00E944C03C15010
:1035000051F76DE770E080E090E00E94F8038BEFE8
:1035100096E090931708809316089093D9078093AC
:10352000D80788ED97E00E94360288E997E00E946C
:10353000DE060E940410D5E0DD24D39402E010E002
:10354000EE24E394F12C80919404882391F1C090AF
:103550008B04C2FCE1C2C0E0C3FE06C083E00E944F
:103560002303892B09F0C860C4FE06C084E00E94D2
:103570002303892B09F0C061C5FE06C085E00E94C7
:103580002303892B09F0C062C6FE06C086E00E94B4
:103590002303892B09F0C064C7FE06C087E00E94A0
:1035A0002303892B09F0C06840E06C2F80E00E9463
:1035B000350D80919504882309F44AC0C0908C048D
:1035C000CC2DC170C0FE07C088E00E942303C1E07B
:1035D000892B09F4C0E0C1FE06C089E00E942303E4
:1035E000892B09F0C260C2FE06C08AE00E94230354
:1035F000892B09F0C460C3FE06C08BE00E94230340
:10360000892B09F0C860C4FE06C08CE00E94230329
:10361000892B09F0C061C5FE06C08DE00E9423031E
:10362000892B09F0C062C6FE06C08EE00E9423030B
:10363000892B09F0C064C7FE06C08FE00E942303F7
:10364000892B09F0C06840E06C2F81E00E94350DA5
:1036500080919604882309F44AC0C0908D04CC2D33
:10366000C170C0FE07C080E10E942303C1E0892B26
:1036700009F4C0E0C1FE06C081E10E942303892B4A
:1036800009F0C260C2FE06C082E10E942303892BBA
:1036900009F0C460C3FE06C083E10E942303892BA6
:1036A00009F0C860C4FE06C084E10E942303892B90
:1036B00009F0C061C5FE06C085E10E942303892B85
:1036C00009F0C062C6FE06C086E10E942303892B72
:1036D00009F0C064C7FE06C087E10E942303892B5E
:1036E00009F0C06840E06C2F82E00E94350D8091A7
:1036F0009704882309F44AC0C0908E04CC2DC17071
:10370000C0FE07C088E10E942303C1E0892B09F4B1
:10371000C0E0C1FE06C089E10E942303892B09F0A5
:10372000C260C2FE06C08AE10E942303892B09F011
:10373000C460C3FE06C08BE10E942303892B09F0FD
:10374000C860C4FE06C08CE10E942303892B09F0E7
:10375000C061C5FE06C08DE10E942303892B09F0DC
:10376000C062C6FE06C08EE10E942303892B09F0C9
:10377000C064C7FE06C08FE10E942303892B09F0B5
:10378000C06840E06C2F83E00E94350D8091980462
:10379000882309F44AC0C0908F04CC2DC170C0FEAC
:1037A00007C080E20E942303C1E0892B09F4C0E036
:1037B000C1FE06C081E20E942303892B09F0C2608A
:1037C000C2FE06C082E20E942303892B09F0C46076
:1037D000C3FE06C083E20E942303892B09F0C86060
:1037E000C4FE06C084E20E942303892B09F0C06155
:1037F000C5FE06C085E20E942303892B09F0C06242
:10380000C6FE06C086E20E942303892B09F0C0642D
:10381000C7FE06C087E20E942303892B09F0C06817
:1038200040E06C2F84E00E94350D8091990488233C
:1038300009F44AC0C0909004CC2DC170C0FE07C0EE
:1038400088E20E942303C1E0892B09F4C0E0C1FE95
:1038500006C089E20E942303892B09F0C260C2FEE0
:1038600006C08AE20E942303892B09F0C460C3FECC
:1038700006C08BE20E942303892B09F0C860C4FEB6
:1038800006C08CE20E942303892B09F0C061C5FEAB
:1038900006C08DE20E942303892B09F0C062C6FE98
:1038A00006C08EE20E942303892B09F0C064C7FE84
:1038B00006C08FE20E942303892B09F0C06840E014
:1038C0006C2F85E00E94350D80919A04882309F4BD
:1038D0004AC0C0909104CC2DC170C0FE07C080E3E7
:1038E0000E942303C1E0892B09F4C0E0C1FE06C099
:1038F00081E30E942303892B09F0C260C2FE06C047
:1039000082E30E942303892B09F0C460C3FE06C032
:1039100083E30E942303892B09F0C860C4FE06C01C
:1039200084E30E942303892B09F0C061C5FE06C011
:1039300085E30E942303892B09F0C062C6FE06C0FE
:1039400086E30E942303892B09F0C064C7FE06C0EA
:1039500087E30E942303892B09F0C06840E06C2FA5
:1039600086E00E94350D80919B04882309F44AC0AB
:10397000C0909204CC2DC170C0FE07C088E30E94A5
:103980002303C1E0892B09F4C0E0C1FE06C089E32E
:103990000E942303892B09F0C260C2FE06C08AE39D
:1039A0000E942303892B09F0C460C3FE06C08BE389
:1039B0000E942303892B09F0C860C4FE06C08CE373
:1039C0000E942303892B09F0C061C5FE06C08DE368
:1039D0000E942303892B09F0C062C6FE06C08EE355
:1039E0000E942303892B09F0C064C7FE06C08FE341
:1039F0000E942303892B09F0C06840E06C2F87E008
:103A00000E94350D80919C048823D1F1C0909304CD
:103A1000CC2DC170C0FE07C080E40E942303C1E02A
:103A2000892B09F4C0E0C1FE06C081E40E94230393
:103A3000892B09F0C260C2FE06C082E40E94230303
:103A4000892B09F0C460C3FE06C083E40E942303EF
:103A5000892B09F0C860C4FE06C084E40E942303D9
:103A6000892B09F0C061C5FE06C085E40E942303CE
:103A7000892B09F0C06240E06C2F88E00E94350D70
:103A80008091160890911708DC01ED91FC9100845B
:103A9000F185E02D1995892B09F4D7C1809116087D
:103AA00090911708DC01ED91FC910284F385E02DE3
:103AB00019959C018F3F980719F3982F8091E30780
:103AC000882309F49BC0973F09F087C01092E30751
:103AD000A091DB07B091DC076C91613709F440C01D
:103AE000693709F064C0E0911008F091110830972F
:103AF00039F28091E4079091E50783309105A0F4B5
:103B000030E020E050E040E070E060E08091F207BB
:103B10009091F3071995B4CF82E00E942303892B7B
:103B200009F419CDC4E018CDBD016D5F7F4F039737
:103B30000E949D02BC016D5F7F4F80E00E946D027C
:103B4000E091DB07F091DC079F012D5F3F4F428141
:103B500050E0618170E0E0911008F0911108D6CF3B
:103B600080910C0890910D08892B09F489CFBD0133
:103B70006F5F7F4F8091E4079091E50701970E9466
:103B80009D02BC016F5F7F4F80E00E946D026091DB
:103B9000DB077091DC076F5F7F4FE0910C08F091BD
:103BA0000D088091F8079091F907199569CFE09178
:103BB0000E08F0910F08309709F462CF9D012F5F36
:103BC0003F4F4091E4075091E507415051098091E2
:103BD000FA079091FB07199553CF6091E407709114
:103BE000E507822F0E946D028091E4079091E5071E
:103BF00001969093E5078093E40742CF6091E10737
:103C00007091E2076115710509F4B1C027FDAFC0DD
:103C1000615071097093E2076093E107822F0E945F
:103C20006D028091E1079091E207892B09F028CF7E
:103C30008091DF07882309F423CF803D09F483C0F6
:103C400040F4803949F1803C09F469C01092DF07E3
:103C500017CF843FE1F1853F09F44DC0803EB1F7B5
:103C6000E091FE07F091FF07309781F3A091DB0709
:103C7000B091DC074C9120E8429FC00111241196BD
:103C80004C91480F592F511D6091E0078091E60734
:103C90009091E7071995DACFE0910008F0910108BB
:103CA0003097A1F2A091DB07B091DC074C9120E89E
:103CB000429FC001112411964C91480F592F511D5C
:103CC0006091E0078091E8079091E907E3CFE091E8
:103CD0000608F0910708309709F4B8CFA091DB07E8
:103CE000B091DC074C9150E011966C918091EE07F9
:103CF0009091EF07CFCFE0910808F0910908309735
:103D000009F4A4CFA091DB07B091DC074C9150E0FF
:103D100011966C918091F0079091F107BBCFE091E3
:103D20000208F0910308309709F490CFA091DB07C7
:103D3000B091DC074C9150E06091E0078091EA0778
:103D40009091EB07A7CFE0910408F0910508309718
:103D500009F47CCFA091DB07B091DC074C9150E0D7
:103D60006091E0078091EC079091ED0793CF903F31
:103D700030F4822F8F708093E007922F907F903FD6
:103D8000F1F190F4903CB1F150F4903909F078CE13
:103D90001093E2070093E1079093DF0771CE903D07
:103DA00049F1903EA9F36CCE993F09F442C028F442
:103DB0008CE0890F823060F363CE9F3F09F060CEC4
:103DC0001092E2071092E1071092DF071092E007CD
:103DD00090E080E02091DD073091DE0782179307A5
:103DE000A8F4E091DB07F091DC07E80FF91F1082DF
:103DF0000196F0CFF092E207E092E107CDCFD092AA
:103E0000E3071092E5071092E4073ACE1092E30719
:103E10001092E5071092E407E0911408F09115085C
:103E20008091FC079091FD07309709F429CE1995F0
:103E300027CEE0911208F0911308309709F420CEB4
:103E40008091F4079091F507F2CF8FB7F8948090A6
:103E5000CC049090CD04A090CE04B090CF048FBF3E
:103E60008091C7049091C804A091C904B091CA047C
:103E7000409101025091020270E060E0881A990AB4
:103E8000AA0ABB0A481559056A057B0508F051C006
:103E9000840F951FA61FB71F8093C7049093C80473
:103EA000A093C904B093CA0488E9A82E87E0B82E6D
:103EB000CAECC031C8F4F501ED57FF4F8081823064
:103EC00099F48091C5049091C6040C2E02C095957A
:103ED00087950A94E2F780FF07C08C2F0E94B603F3
:103EE000BC018C2F0E943006CF5F8FEFA81AB80A52
:103EF000C031F9F68091000287FD1BC0C0E02C2F75
:103F000030E080910002082E000C990B8217930775
:103F100084F0D29FF001D39FF00D1124E356FB4FA4
:103F2000618172812481438180810E944910CF5F29
:103F3000E6CF0E946C0507CB052E97FB1EF400947C
:103F40000E94B31F57FD07D00E94CE1F07FC03D06D
:103F50004EF40C94B31F50954095309521953F4FEA
:103F60004F4F5F4F089590958095709561957F4F65
:103F70008F4F9F4F08950E94F01FA59F900DB49FF3
:103F8000900DA49F800D911D11240895B7FF0C94EE
:103F9000BB1F0E94BB1F821B930B0895A1E21A2E28
:103FA000AA1BBB1BFD010DC0AA1FBB1FEE1FFF1FDD
:103FB000A217B307E407F50720F0A21BB30BE40B2D
:103FC000F50B661F771F881F991F1A9469F7609574
:103FD0007095809590959B01AC01BD01CF0108952E
:103FE000A29FB001B39FC001A39F700D811D11243A
:103FF000911DB29F700D811D1124911D0895991B73
:1040000079E004C0991F961708F0961B881F7A95CF
:10401000C9F780950895EE0FFF1F881F8BBF07908B
:10402000F691E02D19940F931F93CF93DF93823075
:10403000910510F482E090E0E0911D0AF0911E0AD3
:1040400030E020E0B0E0A0E0309799F42115310590
:1040500009F44AC0281B390B24303105D8F58A8170
:104060009B816115710589F1FB0193838283FE01B8
:1040700011C0408151810281138148175907E0F036
:104080004817590799F4109761F012960C931297FC
:1040900013961C933296CF01DF91CF911F910F9110
:1040A000089500931D0A10931E0AF4CF21153105BF
:1040B00051F04217530738F0A901DB019A01BD0105
:1040C000DF01F801C1CFEF01F9CF90931E0A809371
:1040D0001D0ACDCFFE01E20FF31F81939193225071
:1040E000310939832883D7CF20911B0A30911C0ACC
:1040F000232B41F4209105023091060230931C0AD3
:1041000020931B0A209103023091040221153105EE
:1041100041F42DB73EB74091070250910802241B8D
:10412000350BE0911B0AF0911C0AE217F307A0F48B
:104130002E1B3F0B2817390778F0AC014E5F5F4FFD
:104140002417350748F04E0F5F1F50931C0A409309
:104150001B0A819391939FCFF0E0E0E09CCFCF9337
:10416000DF930097E9F0FC01329713821282A0914D
:104170001D0AB0911E0AED0130E020E01097A1F475
:1041800020813181820F931F20911B0A30911C0ADC
:104190002817390709F061C0F0931C0AE0931B0A45
:1041A000DF91CF910895EA01CE17DF07E8F54A8144
:1041B0005B819E0141155105B1F7E901FB83EA835B
:1041C00049915991C40FD51FEC17FD0761F4808107
:1041D00091810296840F951FE901998388838281DA
:1041E00093819B838A83F0E0E0E012968D919C910D
:1041F00013970097B9F52D913C911197CD01029637
:10420000820F931F20911B0A30911C0A281739072F
:1042100039F6309751F510921E0A10921D0AB0938C
:104220001C0AA0931B0ABCCFD383C2834081518157
:10423000840F951FC817D90761F44E5F5F4F8881BF
:104240009981480F591F518340838A819B819383B1
:1042500082832115310509F0B0CFF0931E0AE09357
:104260001D0A9ECFFD01DC01C0CF13821282D7CF81
:10427000FB01DC014150504048F001900D920020BC
:10428000C9F701C01D9241505040E0F70895F894DD
:10429000FFCFFF130000001F0A800000000000FF96
:1042A00004320478044C05A90487049B0400000030
:1042B000000609D9083509AF08D208BF08B0084D73
:1042C000617820736572766F7320617474616368BE
:1042D000656400556E6B6E6F776E2070696E206D31
:1042E0006F6465004932433A20546F6F206D616EF0
:1042F0007920627974657320726563656976656497
:10430000004932433A20546F6F2066657720627906
:104310007465732072656365697665640031302D5C
:104320006269742061646472657373696E67206E7C
:104330006F7420737570706F7274656400746F6F42
:10434000206D616E792071756572696573002F70DB
:104350007269766174652F7661722F666F6C646521
:1043600072732F67672F6C386632336D747336340F
:104370006E3838783763326E30347A76767730300C
:104380003030676E2F542F2E61726475696E6F49DD
:1043900044452D756E736176656432303233303446
:1043A0002D313030372D3133646679762E3876638F
:1043B00034652F5374616E646172644669726D6115
:1043C00074612F5374616E646172644669726D61C9
:0843D00074612E696E6F00009C
:020000040003F7
:10E000000D9489F10D94B2F10D94B2F10D94B2F129
:10E010000D94B2F10D94B2F10D94B2F10D94B2F1F0
:10E020000D94B2F10D94B2F10D94B2F10D94B2F1E0
:10E030000D94B2F10D94B2F10D94B2F10D94B2F1D0
:10E040000D94B2F10D94B2F10D94B2F10D94B2F1C0
:10E050000D94B2F10D94B2F10D94B2F10D94B2F1B0
:10E060000D94B2F10D94B2F10D94B2F10D94B2F1A0
:10E070000D94B2F10D94B2F10D94B2F10D94B2F190
:10E080000D94B2F10D94B2F10D94B2F10D94B2F180
:10E090000D94B2F10D94B2F10D94B2F10D94B2F170
:10E0A0000D94B2F10D94B2F10D94B2F10D94B2F160
:10E0B0000D94B2F10D94B2F10D94B2F10D94B2F150
:10E0C0000D94B2F10D94B2F10D94B2F10D94B2F140
:10E0D0000D94B2F10D94B2F10D94B2F10D94B2F130
:10E0E0000D94B2F141546D656761323536300041AF
:10E0F000726475696E6F206578706C6F72657220DE
:10E1000073746B3530305632206279204D4C530099
:10E11000426F6F746C6F616465723E004875683F52
:10E1200000436F6D70696C6564206F6E203D200048
:10E130004350552054797065202020203D20005FF9
:10E140005F4156525F415243485F5F3D2000415658
:10E1500052204C696243205665723D20004743437C
:10E160002056657273696F6E203D20004350552024
:10E1700049442020202020203D20004C6F7720663D
:10E18000757365202020203D20004869676820665F
:10E190007573652020203D200045787420667573D6
:10E1A00065202020203D20004C6F636B2066757336
:10E1B000652020203D20004D617220203720323024
:10E1C000313300312E362E3800342E332E350056A2
:10E1D00023202020414444522020206F7020636F70
:10E1E00064652020202020696E73747275637469E1
:10E1F0006F6E2061646472202020496E74657272B3
:10E20000757074006E6F20766563746F7200726A49
:10E210006D702020006A6D70200057686174207056
:10E220006F72743A00506F7274206E6F7420737541
:10E2300070706F72746564004D7573742062652030
:10E2400061206C6574746572002000577269747483
:10E25000696E672045450052656164696E672045B7
:10E26000450045452065727220636E743D00504F35
:10E27000525400303D5A65726F2061646472003FF1
:10E280003D43505520737461747300403D454550C3
:10E29000524F4D207465737400423D426C696E6B41
:10E2A000204C454400453D44756D70204545505215
:10E2B0004F4D00463D44756D7020464C415348001B
:10E2C000483D48656C70004C3D4C69737420492F83
:10E2D0004F20506F72747300513D51756974005234
:10E2E0003D44756D702052414D00563D73686F7707
:10E2F00020696E7465727275707420566563746FF0
:10E30000727300593D506F727420626C696E6B00BD
:10E310002A0011241FBECFEFD1E2DEBFCDBF01E046
:10E320000CBF12E0A0E0B2E0EEE1FDEF03E00BBFB6
:10E3300002C007900D92A030B107D9F712E0A0E01B
:10E34000B2E001C01D92AE30B107E1F70F9460F367
:10E350000D948DFE01E20EBF0FEF0DBF11241FBE05
:10E360000D9460F30D9400F020E030E040ED57E0B4
:10E3700005C0FA013197F1F72F5F3F4F2817390792
:10E38000C0F308959C01260F311DC901A0E0B0E043
:10E390002F5F3F4FABBFFC018791882361F08093D3
:10E3A000C6008091C00086FFFCCF8091C0008064D1
:10E3B0008093C000EACF08958DE08093C6008091DD
:10E3C000C00086FFFCCF8091C00080648093C000B5
:10E3D0008AE08093C6008091C00086FFFCCF8091C8
:10E3E000C00080648093C00008950F94C2F10F9420
:10E3F000DCF10895FC019081992359F09093C600B7
:10E400008091C00086FFFCCF8091C0008064809323
:10E41000C0003196992379F70895282F982F929567
:10E420009F70892F805D8A3308F0895F8093C600D2
:10E430008091C00086FFFCCF8091C00080648093F3
:10E44000C000822F8F70982F905D9A3308F0995FEB
:10E450009093C6008091C00086FFFCCF8091C000E1
:10E4600080648093C00008959C01FB01853691056E
:10E470001CF46330710594F0C90164E670E00F94F8
:10E480002EFE605D7F4F6093C6008091C00086FFC6
:10E49000FCCF8091C00080648093C0002B30310598
:10E4A00014F43297B4F0C90164E670E00F942EFEC4
:10E4B0006AE070E00F942EFE605D7F4F6093C600AF
:10E4C0008091C00086FFFCCF8091C0008064809363
:10E4D000C000C9016AE070E00F942EFEC0968093E0
:10E4E000C6008091C00086FFFCCF8091C000806490
:10E4F0008093C00008951F93182F8EE692EE60E07F
:10E500000F94C2F11093C6008091C00086FFFCCF2B
:10E510008091C00080648093C0000F94DCF11F9153
:10E5200008952F923F924F925F926F927F928F92B7
:10E530009F92AF92BF92CF92DF92EF92FF920F9392
:10E540001F93DF93CF93CDB7DEB762970FB6F894E2
:10E55000DEBF0FBECDBF382E622ECA01DB015C01CB
:10E560006D01772420E2222E2E010894411C511CBB
:10E570008BC081E0A81680E0B80681E0C80680E084
:10E58000D80628F0C601AA27BB270F940DF2BB2797
:10E59000AD2D9C2D8B2D0F940DF28A2D0F940DF225
:10E5A0002092C6008091C00086FFFCCF8091C00001
:10E5B00080648093C0009DE29093C6008091C0006B
:10E5C00086FFFCCF8091C00080648093C0002092C1
:10E5D000C6008091C00086FFFCCF8091C00080649F
:10E5E0008093C00019828601750188249924A1E0D6
:10E5F0003A1651F03A1620F0B2E03B1661F409C029
:10E600000BBFF701779007C0C7010F9477FE782EF4
:10E6100002C0F7017080872D0F940DF22092C60082
:10E620008091C00086FFFCCF8091C0008064809301
:10E63000C000872D8052F401EF70F0708F3520F408
:10E64000E40DF51D708204C0E40DF51D8EE280839B
:10E650000894E11CF11C011D111D0894811C911CE2
:10E6600090E18916910409F0C2CF80E190E0A0E02A
:10E67000B0E0A80EB91ECA1EDB1E198AC2010F9493
:10E68000FAF10F94DCF16A94662009F072CF629679
:10E690000FB6F894DEBF0FBECDBFCF91DF911F91B3
:10E6A0000F91FF90EF90DF90CF90BF90AF909F9031
:10E6B0008F907F906F905F904F903F902F90089534
:10E6C0002F923F924F925F926F927F928F929F9282
:10E6D000AF92BF92CF92DF92EF92FF920F931F9370
:10E6E000DF93CF93CDB7DEB7CD53D1400FB6F894BB
:10E6F000DEBF0FBECDBF01E20EBF0FEF0DBF94B75F
:10E70000F894A89514BE80916000886180936000A1
:10E7100010926000789493FF05C0E0910002F091A0
:10E7200001021995279A2F9A8091C00082608093E8
:10E73000C00080E18093C40088E18093C1000000A4
:10E74000EE24FF24870144E0A42EB12CCC24DD2448
:10E7500024C0C5010197F1F70894E11CF11C011DCB
:10E76000111D21E2E2162EE4F20620E0020720E06D
:10E77000120718F031E0C32ED12CC801B70127ECE5
:10E780003BE140E050E00F9441FE611571058105C9
:10E79000910519F485B1805885B98091C00087FD35
:10E7A00003C0C114D104A9F2A6014F5F5F4FC25E3E
:10E7B000DE4F59834883CE51D140C25EDE4F8881FF
:10E7C0009981CE51D140019711F00D9410FEC05D9A
:10E7D000DE4F19821882C053D14060E0C15DDE4F28
:10E7E0001882CF52D14088249924C35DDE4F19820C
:10E7F0001882CD52D140C05EDE4F188219821A8233
:10E800001B82C052D140CE5CDE4F188219821A8220
:10E810001B82C253D140EE24FF2487010BBFF701B6
:10E8200007911691C45CDE4F19830883CC53D14005
:10E830000D940BFEC25EDE4F28813981CE51D1404E
:10E840002130310509F52091C600C25EDE4F1982E4
:10E850001882CE51D14022C02F5F3F4F4F4F5F4FA4
:10E86000213082E138078AE7480780E0580780F0C6
:10E87000C45CDE4FE881F981CC53D140EF5FFF4F9C
:10E8800019F0EE27FF27099420E030E040E050E047
:10E890008091C00087FFE0CF2091C600C35DDE4FAE
:10E8A00048815981CD52D1404F5F5F4FC35DDE4FEC
:10E8B00059834883CD52D140213209F063C64A3092
:10E8C000510508F05FC60894811C911C53E0851621
:10E8D000910409F059C600E010E018C081E280936D
:10E8E000C6008091C00086FFFCCF8091C00080648C
:10E8F0008093C0002F5F3F4F2931310579F70F9486
:10E90000DCF10F5F1F4F0530110519F020E030E0FA
:10E91000E5CF10920A0210920B0210920C02109294
:10E920000D02109206021092070210920802109235
:10E930000902109202021092030210920402109235
:10E9400005028FEE90EE60E00F94F5F180E191EE1C
:10E9500060E00F94C2F18091C00087FFFCCF9091DE
:10E96000C600903608F09F759032B8F09093C600BC
:10E970008091C00086FFFCCF8091C00080648093AE
:10E98000C000A0E2A093C6008091C00086FFFCCF2B
:10E990008091C00080648093C000983409F4D7C18E
:10E9A0009934B8F4923409F459C1933458F490333B
:10E9B00019F1903308F4E3C59F33A1F1903409F0C5
:10E9C000DEC5BDC0953409F470C1963409F0D7C5D1
:10E9D00098C1923509F42BC2933538F49C3409F46C
:10E9E000F5C1913509F0CBC518C2963509F445C279
:10E9F000993509F0C4C567C483E792EE62E00F94CD
:10EA0000F5F110920602109207021092080210927D
:10EA1000090210920A0210920B0210920C0210923C
:10EA20000D0213C18FE792EE62E00F94F5F18FEEC5
:10EA300090EE60E00F94F5F181E291EE60E00F94CA
:10EA4000C2F187EB91EE60E00F94F5F180E391EE77
:10EA500060E00F94C2F184EE90EE60E00F94F5F167
:10EA60008FE391EE60E00F94C2F186E090E061E008
:10EA700070E00F9434F20F94DCF18DE591EE60E0DC
:10EA80000F94C2F189EC91EE60E00F94F5F18EE401
:10EA900091EE60E00F94C2F183EC91EE60E00F9490
:10EAA000F5F18CE691EE60E00F94C2F18EE10F94E7
:10EAB0000DF288E90F940DF281E00F940DF20F949E
:10EAC000DCF18BE791EE60E00F94C2F119E0E0E039
:10EAD000F0E010935700E4918E2F0F940DF20F94F5
:10EAE000DCF18AE891EE60E00F94C2F1E3E0F0E03F
:10EAF00010935700E4918E2F0F940DF20F94DCF1D8
:10EB000089E991EE60E00F94C2F1E2E0F0E0109349
:10EB10005700E4918E2F0F940DF20F94DCF188EAE8
:10EB200091EE60E00F94C2F1E1E0F0E01093570045
:10EB30001491812F0F940DF20F94DCF107CF8BE825
:10EB400092EE62E00F94F5F18BE492EE60E00F94A8
:10EB5000F5F10F94DCF100E010E019C0C8016F2D51
:10EB60000F947FFEFF2031F489E492EE60E00F9471
:10EB7000C2F10BC0F092C6008091C00086FFFCCFAE
:10EB80008091C00080648093C0000F5F1F4FC80158
:10EB900081519F41A0E0B0E0ABBFFC01F790BAE229
:10EBA000FB1621F0E2E000301E07C1F60F94DCF105
:10EBB0000F94DCF187E592EE60E00F94F5F10F948D
:10EBC000DCF1CC24DD2400E010E01EC0C8010F946D
:10EBD00077FEF82E882331F489E492EE60E00F94FA
:10EBE000C2F10BC08093C6008091C00086FFFCCFAD
:10EBF0008091C00080648093C000FE1419F00894D6
:10EC0000C11CD11C0F5F1F4FC80181519F41A0E063
:10EC1000B0E0ABBFFC01E790FAE2EF1621F022E092
:10EC20000030120799F60F94DCF10F94DCF182E6C4
:10EC300092EE60E00F94C2F1C60161E070E00F94C3
:10EC400034F20F94DCF10F94DCF110920202109276
:10EC50000302109204021092050278CE89E992EE26
:10EC600062E00F94F5F1279A2F9A16C02F9880E052
:10EC700090E0E0EDF7E03197F1F7019684369105E9
:10EC8000C1F72F9A80E090E0E0EDF7E03197F1F7DF
:10EC9000019684369105C1F78091C00087FFE6CFC9
:10ECA0008091C00087FFFCCF64C485EA92EE62E0E9
:10ECB0000F94F5F140910202509103026091040219
:10ECC0007091050281E020E10F9491F2809102029F
:10ECD00090910302A0910402B091050280509F4FD1
:10ECE000AF4FBF4F8093020290930302A0930402A0
:10ECF000B093050280509041A040B04008F426CE69
:10ED0000A4CF83EB92EE62E00F94F5F140910602FE
:10ED100050910702609108027091090280E020E1A1
:10ED20000F9491F28091060290910702A09108023F
:10ED3000B091090280509F4FAF4FBF4F80930602A2
:10ED400090930702A0930802B0930902FFCD80ECD4
:10ED500092EE62E00F94F5F183E792EE60E00F949B
:10ED6000F5F18FE792EE60E00F94F5F18BE892EE0B
:10ED700060E00F94F5F189E992EE60E00F94F5F10F
:10ED800085EA92EE60E00F94F5F183EB92EE60E09D
:10ED90000F94F5F180EC92EE60E00F94F5F187ECC2
:10EDA00092EE60E00F94F5F188ED92EE60E00F9442
:10EDB000F5F18FED92EE60E00F94F5F18AEE92EEB0
:10EDC00060E00F94F5F183E093EEBDCD87EC92EE19
:10EDD00062E00F94F5F181E40F947BF282E40F94EA
:10EDE0007BF283E40F947BF284E40F947BF285E45E
:10EDF0000F947BF286E40F947BF287E40F947BF20E
:10EE000088E40F947BF28AE40F947BF28BE40F94F6
:10EE10007BF28CE40F947BF299CD88ED92EE62E068
:10EE20000F94F5F1772473948824992409C48FED05
:10EE300092EE62E00F94F5F140910A0250910B02BC
:10EE400060910C0270910D0282E020E10F9491F22A
:10EE500080910A0290910B02A0910C02B0910D02D8
:10EE600080509F4FAF4FBF4F80930A0290930B0289
:10EE7000A0930C02B0930D0269CD8AEE92EE62E08F
:10EE80000F94F5F184EE90EE60E00F94F5F18FECC5
:10EE900091EE60E00F94F5F1662477244301CC5D98
:10EEA000DE4F19821882C452D140D401C301B695F5
:10EEB000A79597958795CA5DDE4F88839983AA8326
:10EEC000BB83C652D140CC5DDE4FA881B981C4520C
:10EED000D1401196CC5DDE4FB983A883C452D14096
:10EEE000CD0162E070E00F9434F2B0E2B093C6005E
:10EEF0008091C00086FFFCCF8091C0008064809329
:10EF0000C000EDE2E093C6008091C00086FFFCCF18
:10EF10008091C00080648093C000F0E2F093C6004E
:10EF20008091C00086FFFCCF8091C00080648093F8
:10EF3000C000CA5DDE4FE880F9800A811B81C6529D
:10EF4000D140BB27A12F902F8F2D0F940DF2CA5DBA
:10EF5000DE4F8881C652D1400F940DF2B0E2FB2EF5
:10EF6000F092C6008091C00086FFFCCF8091C00067
:10EF700080648093C0000DE30093C6008091C000C0
:10EF800086FFFCCF8091C00080648093C00010E2B7
:10EF90001093C6008091C00086FFFCCF8091C00016
:10EFA00080648093C0008BBEF3012791C65DDE4F65
:10EFB0002883CA52D140A22EBB24CC24DD2408943D
:10EFC000611C711C811C911C8BBEF3018791282E42
:10EFD0003324442455240894611C711C811C911C09
:10EFE0008BBEF3013791C55DDE4F3883CB52D140E4
:10EFF0000894611C711C811C911C8BBEF30147910C
:10F00000C45DDE4F4883CC52D140ADEFEA2EAFEF66
:10F01000FA2EAFEF0A2FAFEF1A2F6E0C7F1C801E57
:10F02000911E142D032DF22CEE24EA0CFB1C0C1D5A
:10F030001D1D0F940DF220E22093C6008091C000A8
:10F0400086FFFCCF8091C00080648093C000C65DC5
:10F05000DE4F8881CA52D1400F940DF230E23093D6
:10F06000C6008091C00086FFFCCF8091C000806404
:10F070008093C000C45DDE4F8881CC52D1400F9494
:10F080000DF240E24093C6008091C00086FFFCCFA5
:10F090008091C00080648093C000C55DDE4F888190
:10F0A000CB52D1400F940DF250E25093C6008091A4
:10F0B000C00086FFFCCF8091C00080648093C000B8
:10F0C0008FEFE8168FEFF80680E0080780E018075A
:10F0D00031F484E092EE60E00F94C2F1DFC0D80119
:10F0E000C7018070907CA070B0708050904CA040A0
:10F0F000B040D1F52FEF3FE340E050E0E222F322B1
:10F1000004231523CA5DDE4FA880B980CA80DB8046
:10F11000C652D140AE0CBF1CC01ED11EAA0CBB1CD7
:10F12000CC1CDD1C8EE092EE60E00F94C2F1BB2798
:10F13000A12F902F8F2D0F940DF28E2D0F940DF285
:10F1400030E23093C6008091C00086FFFCCF8091F2
:10F15000C00080648093C0004EE34093C60080915D
:10F16000C00086FFFCCF87C08EE09EEFA0E0B0E03D
:10F17000E822F9220A231B239CE0E91694E9F90608
:10F1800090E0090790E0190709F088C0C45DDE4FE0
:10F19000A881CC52D140EA2EFF2400E010E0102FCD
:10F1A0000F2DFE2CEE24C55DDE4FB881CB52D14031
:10F1B000EB0EF11C011D111DD601C501817090706F
:10F1C000A070B070DC0199278827E80EF91E0A1F8D
:10F1D0001B1F20EF30E040E050E0A222B322C42207
:10F1E000D52241E1AA0CBB1CCC1CDD1C4A95D1F7F1
:10F1F000EA0CFB1C0C1D1D1D81E090E0A0E0B0E0BE
:10F20000282239224A225B2235E1220C331C441C7D
:10F21000551C3A95D1F7E20CF31C041D151D57013E
:10F220006801AA0CBB1CCC1CDD1C85E192EE60E0E1
:10F230000F94C2F1C801AA27BB270F940DF2BB2778
:10F24000A12F902F8F2D0F940DF28E2D0F940DF274
:10F2500090E29093C6008091C00086FFFCCF809121
:10F26000C00080648093C000AEE3A093C60080918C
:10F27000C00086FFFCCF8091C00080648093C000F6
:10F28000C601AA27BB270F940DF2BB27AD2D9C2DDD
:10F290008B2D0F940DF28A2D0F940DF20F94DCF14B
:10F2A000CC5DDE4FE881F981C452D140F99709F471
:10F2B0004DCBF4E0EF2EF12C012D112D6E0C7F1CA7
:10F2C000801E911EF2CD83E093EE62E00F94F5F183
:10F2D0008AE192EE60E00F94C2F18091C00087FF56
:10F2E000FCCF1091C6001F751093C6008091C0001E
:10F2F00086FFFCCF8091C00080648093C0000F9493
:10F30000DCF1812F81548A3108F036C1163409F4BA
:10F3100095C0173490F4133409F44EC0143430F40B
:10F320001134F1F0123409F01DC130C0143409F465
:10F3300059C0153409F016C16BC01A3409F4C4C0A1
:10F340001B3438F4173409F48FC0183409F00AC19B
:10F35000A1C01B3409F4D2C01C3409F003C1E8C0B9
:10F360008FEF81B90DC082B1809582B980E090E0C5
:10F37000E0EDF7E03197F1F70196883C9105C1F790
:10F380008091C00087FFEFCF12B8EFC08FEF84B934
:10F390000DC085B1809585B980E090E0E0EDF7E0A3
:10F3A0003197F1F70196883C9105C1F78091C00033
:10F3B00087FFEFCF15B8D9C08FEF87B90DC088B1DF
:10F3C000809588B980E090E0E0EDF7E03197F1F7C3
:10F3D0000196883C9105C1F78091C00087FFEFCF6F
:10F3E00018B8C3C08FEF8AB90DC08BB180958BB9A7
:10F3F00080E090E0E0EDF7E03197F1F70196883C8E
:10F400009105C1F78091C00087FFEFCF1BB8ADC059
:10F410008FEF8DB90DC08EB180958EB980E090E0F0
:10F42000E0EDF7E03197F1F70196883C9105C1F7DF
:10F430008091C00087FFEFCF1EB897C08FEF80BBD1
:10F440000DC081B3809581BB80E090E0E0EDF7E0F6
:10F450003197F1F70196883C9105C1F78091C00082
:10F4600087FFEFCF11BA81C08FEF83BB0DC084B38C
:10F47000809584BB80E090E0E0EDF7E03197F1F714
:10F480000196883C9105C1F78091C00087FFEFCFBE
:10F4900014BA6BC08FEF809301010FC080910201FD
:10F4A00080958093020180E090E0E0EDF7E03197F5
:10F4B000F1F70196883C9105C1F78091C00087FF64
:10F4C000EDCF1092020151C08FEF809304010FC065
:10F4D0008091050180958093050180E090E0E0ED4A
:10F4E000F7E03197F1F70196883C9105C1F78091DB
:10F4F000C00087FFEDCF1092050137C08FEF8093DA
:10F5000007010FC08091080180958093080180E079
:10F5100090E0E0EDF7E03197F1F70196883C910536
:10F52000C1F78091C00087FFEDCF109208011DC088
:10F530008FEF80930A010FC080910B01809580931B
:10F540000B0180E090E0E0EDF7E03197F1F70196F4
:10F55000883C9105C1F78091C00087FFEDCF1092E4
:10F560000B0103C085E292EEEEC98091C00087FFD7
:10F57000FCCF8091C600EAC988E392EEE4C98CE131
:10F5800091EEE1C988249924933011F1943028F444
:10F59000913089F09230B8F408C0953061F195301F
:10F5A000F0F0963009F048C043C02B3109F042C951
:10F5B00091E06BE13FC96227C15DDE4F2883CF52E6
:10F5C000D14092E037C9B22FA0E0622793E032C960
:10F5D000822F90E0A82BB92B622794E02BC92E3004
:10F5E00009F039C3622795E0C05DDE4F19821882A9
:10F5F000C053D1401FC9E1E0F0E0EC0FFD1FC05D3A
:10F60000DE4F08811981C053D140E00FF11F2083E4
:10F610000F5F1F4FC05DDE4F19830883C053D14079
:10F6200062270A171B0709F005C9D80196E002C92D
:10F63000261709F010C303C0973009F0FBC87724E0
:10F640009981933109F412C19431C8F4963009F4C8
:10F65000D8C0973050F4923009F406C1933009F4C1
:10F660006DC0913009F059C253C0913109F477C08F
:10F67000923108F0BBC0903109F04FC2F5C098310B
:10F6800009F487C0993150F4953109F4EFC09531F0
:10F6900008F4C6C1963109F040C2C2C19A3109F4DA
:10F6A0006CC09A3108F491C09B3109F45BC09D3164
:10F6B00009F033C29D81903359F48F81882311F46E
:10F6C0009EE11CC0813011F091E018C098E916C08D
:10F6D000892F807591F0903539F4E0E0F0E089E011
:10F6E0008093570094910AC0983539F4E3E0F0E034
:10F6F00089E080935700949101C090E01A821B82A8
