:020000040000FA
:100000000C945D000C9485000C9485000C94AD104C
:100010000C94AD100C94AD100C9485000C948500DC
:100020000C9485000C9485000C9485000C94D611DA
:100030000C9485000C9485000C9485000C9485002C
:100040000C940B100C9485000C947B100C945510A0
:100050000C9485000C9485000C9485000C9485000C
:100060000C94B7100C9485000000000024002700B9
:100070002A0000000000250028002B0004040404CE
:100080000404040402020202020203030303030342
:10009000010204081020408001020408102001021F
:1000A00004081020000000080002010000030407FB
:1000B0000000000000000000921211241FBECFEFCC
:1000C000D8E0DEBFCDBF12E0A0E0B1E0E4E4F2E3AF
:1000D00002C005900D92A033B107D9F725E0A0E347
:1000E000B2E001C01D92A935B207E1F710E0CDE5FD
:1000F000D0E004C02197FE010E94E617CC35D1075D
:10010000C9F70E94A6130C9420190C940000862FA6
:10011000E0911003F0911103309711F0BA010994A6
:100120000895862FE0910E03F0910F03309711F0A0
:10013000BA0109940895862FE0910C03F0910D0304
:10014000309711F0BA0109940895862FE0910A03BF
:10015000F0910B03309711F0BA0109940895862F9E
:10016000E0910803F0910903309711F0BA01099466
:100170000895862FE0910603F0910703309711F060
:10018000BA01099408950895862F642FE09112030F
:10019000F0911303309711F0A90109940895E091AB
:1001A0001403F0911503309709F009940895CF9343
:1001B000DF93FC01A081B181109701F1EC01ED9179
:1001C000FC9111970190F081E02D69EFCD01099527
:1001D00088819981DC01ED91FC910190F081E02D05
:1001E00062E0099588819981DC01ED91FC91019093
:1001F000F081E02D65E0DF91CF910994DF91CF91FF
:100200000895A091BE04B091BF04ED91FC911197A7
:100210000190F081E02D682FCD0109941F93CF93B9
:10022000DF93182FEB018091850490918604681765
:10023000790760F48091830490918404C80FD91FDA
:10024000188380E0DF91CF911F910895E091B2046F
:10025000F091B304309711F481E0F4CF81E0809302
:10026000820480919E0490919F0409958091850459
:1002700090918604C817D90778F7DCCFCF93DF9326
:10028000EC01FB0130E020E0C901880F991F8C17B9
:100290009D0778F44081DB014D93BD011197918159
:1002A000979599279795942B9C932F5F3F4F329664
:1002B000EBCFC901DF91CF91089590E0FC01EC559F
:1002C000FF4F2491FC01E057FF4F3491FC01E458AB
:1002D000FF4FE491EE23C9F0222339F0233001F1DE
:1002E000A8F4213019F1223029F1F0E0EE0FFF1FC0
:1002F000EE58FF4FA591B4918FB7F894EC9161112E
:1003000026C030953E233C938FBF08952730A9F037
:100310002830C9F0243049F7809180008F7D03C0D8
:10032000809180008F7780938000DFCF84B58F77B6
:1003300084BDDBCF84B58F7DFBCF8091B0008F77FC
:100340008093B000D2CF8091B0008F7DF9CF3E2B4B
:10035000DACFCF93DF9390E0FC01E057FF4F249179
:1003600084589F4FFC0184918823C9F090E0880F46
:10037000991FFC01E859FF4FA591B491FC01EE587B
:10038000FF4FC591D49161110DC09FB7F8948C9126
:10039000209582238C938881282328839FBFDF9117
:1003A000CF910895623051F49FB7F8943C91822F19
:1003B000809583238C93E8812E2BEFCF8FB7F89411
:1003C000EC912E2B2C938FBFEACF8E3008F08E50FD
:1003D0008770806480937C0080917A008064809331
:1003E0007A0080917A0086FDFCCF80917800909110
:1003F000790008953FB7F89480914F03909150038E
:10040000A0915103B091520326B5A89B05C02F3F80
:1004100019F00196A11DB11D3FBFBA2FA92F982F2A
:100420008827BC01CD01620F711D811D911D42E025
:10043000660F771F881F991F4A95D1F708958F92ED
:100440009F92AF92BF92CF92DF92EF92FF926B0199
:100450007C010E94FA014B015C01C114D104E1044A
:10046000F104B9F00E94FA01681979098A099B0917
:10047000683E73408105910580F321E0C21AD108DE
:10048000E108F10888EE880E83E0981EA11CB11CDB
:10049000E4CFFF90EF90DF90CF90BF90AF909F9010
:1004A0008F900895009721F0805C9F4F0C94D700A7
:1004B0000895AF92BF92CF92DF92EF92FF920F9387
:1004C0001F93CF93DF936C017B018B01040F151FEA
:1004D000EB015E01AE18BF08C017D10759F0699152
:1004E000D601ED91FC910190F081E02DC6010995B6
:1004F000892B79F7C501DF91CF911F910F91FF9063
:10050000EF90DF90CF90BF90AF900895FC01538D96
:10051000448D252F30E0842F90E0821B930B5417DD
:1005200010F0CF96089501970895FC01918D828D6A
:10053000981761F0A28DAE0FBF2FB11D5D968C9103
:10054000928D9F5F9F73928F90E008958FEF9FEF42
:100550000895FC01918D828D981731F0828DE80FFE
:10056000F11D858D90E008958FEF9FEF0895FC01B8
:10057000918D228D892F90E0805C9F4F821B910985
:100580008F739927089583EA93E00E94B70221E0D0
:10059000892B09F420E0822F089580E090E0892BD8
:1005A00029F00E94C30281110C9400000895FC01FF
:1005B000A48DA80FB92FB11DA35ABF4F2C91848DC4
:1005C00090E001968F739927848FA689B7892C9321
:1005D000A089B1898C91837080648C93938D848D74
:1005E000981306C00288F389E02D80818F7D808377
:1005F0000895EF92FF920F931F93CF93DF93EC0137
:1006000081E0888F9B8D8C8D98131AC0E889F989B9
:10061000808185FF15C09FB7F894EE89FF896083BC
:10062000E889F98980818370806480839FBF81E03D
:1006300090E0DF91CF911F910F91FF90EF9008957F
:10064000F62E0B8D10E00F5F1F4F0F731127E02E5A
:100650008C8D8E110CC00FB607FCFACFE889F98992
:10066000808185FFF5CFCE010E94D702F1CFEB8DBF
:10067000EC0FFD2FF11DE35AFF4FF0829FB7F89466
:100680000B8FEA89FB8980818062CFCFCF93DF9384
:10069000EC01888D8823B9F0AA89BB89E889F9899A
:1006A0008C9185FD03C0808186FD0DC00FB607FCCF
:1006B000F7CF8C9185FFF2CF808185FFEDCFCE0102
:1006C0000E94D702E9CFDF91CF9108955F926F9298
:1006D0007F928F929F92AF92BF92CF92DF92EF92D2
:1006E000FF920F931F93CF93DF935C016901DA01AF
:1006F0005C90232B19F4CC24CA94DC2C8A013A0197
:10070000660E771ED0E0C0E0F12CE12C87E0882E49
:10071000912CF50180819181D8016C910C2E01C042
:10072000660F0A94EAF765296F77DC01ED91FC9179
:100730000190F081E02D0995BFEFEB1AFB0AF8015B
:10074000608170E0C4018C1B9D0B02C0759567959C
:100750008A95E2F7562E2196C730D10558F1CE146E
:10076000DF0441F1D5018D919C91652D6F77DC01FE
:10077000ED91FC910190F081E02D0995BFEFEB1A0E
:10078000FB0A551C5524551C2797E6CFEC14FD0495
:1007900008F4BFCFDF91CF911F910F91FF90EF90A1
:1007A000DF90CF90BF90AF909F908F907F906F9091
:1007B0005F9008950F5F1F4F6016710639F72097FD
:1007C00049F3EC14FD0430F7F5018081918161E07B
:1007D00070E001C0660FCA95EAF761506521DC013F
:1007E000ED91FC910190F081E02DDF91CF911F916F
:1007F0000F91FF90EF90DF90CF90BF90AF909F90C0
:100800008F907F906F905F9009941F93CF93DF93A9
:1008100000D0CDB7DEB7182F7A836983809180042A
:10082000909181040097C9F0DC01ED91FC91019059
:10083000F081E02D1031B8F461157044A0F4612FFF
:10084000606E099522E030E0AE014F5F5F4F62E0DD
:1008500070E080E894E00E9466030F900F90DF91B3
:10086000CF911F91089560EF099580918004909138
:100870008104DC01ED91FC910190F081E02D6FE6A7
:1008800009958091800490918104DC01ED91FC91A7
:100890000190F081E02D612F099522E030E0AE015A
:1008A0004F5F5F4F62E070E080E894E00E94660373
:1008B0008091800490918104DC01ED91FC91019084
:1008C000F081E02D67EF0995C8CFEF92FF920F936B
:1008D0001F93CF93DF93C82F809180049091810460
:1008E0000097C9F17A018B01DC01ED91FC91019037
:1008F000F081E02D60EF0995809180049091810452
:10090000DC01ED91FC910190F081E02D6C2F0995B7
:10091000E7010E0D1F1DC017D10759F030E020E090
:10092000AE0161E070E080E894E00E9466032196E9
:10093000F2CF8091800490918104DC01ED91FC91D3
:100940000190F081E02D67EFDF91CF911F910F9122
:10095000FF90EF900994DF91CF911F910F91FF903D
:10096000EF900895CF92DF92EF92FF920F931F9333
:10097000CF93DF93FC01E058FF4FE080EE2009F4B5
:100980005CC0EC01C05CDF4FA881B981109709F40D
:1009900054C0FC01EF57FF4FC080D180F601118198
:1009A0000081ED91FC9111970190F081E02D60EFB5
:1009B000CD01099588819981DC01ED91FC9101902F
:1009C000F081E02D69E7099588819981DC01ED913D
:1009D000FC910190F081E02D602F0995888199812B
:1009E000DC01ED91FC910190F081E02D612F0995E2
:1009F000F12C01E010E00F5F1F4FE016F10659F0F7
:100A000030E020E0A601400F511F61E070E0CE0110
:100A10000E946603F0CF88819981DC01ED91FC9101
:100A20000190F081E02D67EFDF91CF911F910F9141
:100A3000FF90EF90DF90CF900994DF91CF911F91BD
:100A40000F91FF90EF90DF90CF900895009711F0F5
:100A50000C94B20408952091DF02260F3327331F30
:100A600021323105ECF420917903FC0190E080E023
:100A7000243069F082E00895A091DF022191AC0159
:100A800043545D4FA40FB52FB11D2C9301968617CB
:100A900098F38091DF02680F6093DF0280E0089591
:100AA00081E008951092790381E080937803109299
:100AB000530361E082E10E945D0161E083E10E94F5
:100AC0005D01E9EBF0E080818E7F808380818D7F06
:100AD000808388E48093B80085E48093BC00089507
:100AE000CF93DF9391E09093BC028823B9F0C0913B
:100AF000B800D091BA008091BC008A7B8093BC0082
:100B000060E082E10E945D0160E083E10E945D019E
:100B10000E945205D093BA00C093B800DF91CF91E4
:100B200008958F929F92AF92BF92CF92DF92EF92F1
:100B3000FF920F931F93CF93DF93D091A203D132F3
:100B400008F0D7C0182FC091A1030E94FA016B01D1
:100B50007C018091790381116BC082E080937903DD
:100B6000109378038FEF8093770310927603D093DE
:100B70007503A1E8B3E0E5E5F3E080E0D81391C0A8
:100B80001092540380915403CC0FC82BC09354038C
:100B900080915303813009F088C0109253030E9462
:100BA000FA016B017C01809154038093BB0080911A
:100BB0007B0390917C03A0917D03B0917E03892BF0
:100BC0008A2B8B2BA1F00E94FA0100917B031091DC
:100BD0007C0320917D0330917E036C197D098E0981
:100BE0009F09061717072807390708F442C08091A4
:100BF000BC0083FDD8CF85EC8093BC000E94FA0135
:100C00006B017C0180917903823009F450C080919E
:100C100077038F3F09F46FC080917703803209F426
:100C20006CC080917703803309F469C084E026C0EA
:100C300080917B0390917C03A0917D03B0917E0312
:100C4000892B8A2B8B2B09F484CF0E94FA01809088
:100C50007B0390907C03A0907D03B0907E036C1981
:100C60007D098E099F0986169706A806B90608F021
:100C700070CF80917A030E94700585E01092800306
:100C80001092A20310927F03DF91CF911F910F91D9
:100C9000FF90EF90DF90CF90BF90AF909F908F909C
:100CA00008959D9191938F5F69CF85EEA5CF809137
:100CB0007B0390917C03A0917D03B0917E03892BEF
:100CC0008A2B8B2B09F49ECF0E94FA0100917B03A3
:100CD00010917C0320917D0330917E036C197D0976
:100CE0008E099F09061717072807390708F08ACFCA
:100CF000C0CF81E0C3CF80E0C1CF82E0BFCF83E02F
:100D0000BDCF089508950895E091BB028091BA0285
:100D1000E81730F4F0E0E656FD4F808190E008954A
:100D20008FEF9FEF08959091BB028091BA022FEF51
:100D30003FEF981748F4E92FF0E0E656FD4F208189
:100D400030E09F5F9093BB02C90108958091BA0281
:100D50009091BB02891B990B0895CF92DF92EF927D
:100D6000FF920F931F93CF93DF937C01CB018A01F6
:100D700020917F03222389F0EB016B01C40ED51E65
:100D8000CC15DD0569F06991D701ED91FC910190D9
:100D9000F081E02DC7010995F3CF642F0E942B0548
:100DA000C801DF91CF911F910F91FF90EF90DF90DD
:100DB000CF900895CF93DF931F92CDB7DEB76983AD
:100DC00020917F032223F9F02091A203203258F0D2
:100DD00021E030E0FC013383228390E080E00F903B
:100DE000DF91CF91089580918003E82FF0E0EF57D5
:100DF000FC4F998190838F5F809380038093A2033F
:100E000081E090E0ECCF61E0CE0101960E942B05DD
:100E1000F7CF90E080E00895DF92EF92FF920F937A
:100E20001F93CF93DF93EC01D62E7A01890188813D
:100E30008C3008F067C061E08D2D0E94A901888187
:100E4000282F30E0F901EE0FFF1FE20FF31FE45FE0
:100E5000FA4F9D2D9F736081607C692B608320E237
:100E600032E02E193F0937FF02C02D5F3F4F359505
:100E7000279535952795298320E639E0201B310BEE
:100E800037FF02C02D5F3F4F359527953595279544
:100E90002A832CE0622F0E94DA17829FB00111246E
:100EA00030E020E0AB01420F531FFA01EE0FFF1FAD
:100EB000E40FF51FE45FFA4F908196FD16C02F5F97
:100EC0003F4F2C30310571F781110FC01092800017
:100ED00082E0809381001092850010928400B19A84
:100EE00080916F00826080936F00E8818E2F90E088
:100EF000FC01EE0FFF1FE80FF91FE45FFA4F80813E
:100F0000806480838881DF91CF911F910F91FF9042
:100F1000EF90DF900895CF938630B0F421E030E079
:100F2000082E02C0220F331F0A94E2F740914403B7
:100F300050914503672B51F4209530952423352398
:100F40003093450320934403CF910895242B352BF0
:100F50003093450320934403909198029111F4CF6C
:100F6000C82F0E94E501BC018C2FCF910C94050481
:100F70005F926F927F928F929F92AF92BF92CF9229
:100F8000DF92EF92FF920F931F93CF93DF93833003
:100F900008F061C0D1E0D80FDD0FDD0FDD0F5D2E51
:100FA000D53110F044E1542EC62F082FD8508D2E85
:100FB000912CC401880F991F9C01205C3B4F590163
:100FC000D12CC12C10E077247394D515C8F58EEF81
:100FD0008D0F8231F8F4F601E80DF91DED53FB4F4A
:100FE00090819230B8F48C2F87216624639481110C
:100FF00001C0612C7601EE0CFF1C913089F4172999
:1010000037E9E30EF11CF501EE0DFF1D862D90E092
:1010100091838083770CDF5F8FEFC81AD80AD5CF12
:10102000882371F3F701E956FF4FEA0DFB1D80811C
:101030009181019729F362E08D2F0E94A901E0CFF1
:10104000011119C0F8948BB16C2F68276C7F612354
:1010500068276BB97894DF91CF911F910F91FF9022
:10106000EF90DF90CF90BF90AF909F908F907F9048
:101070006F905F9008950130D1F4C123F89495B139
:10108000812F8F73809589239C2F9F73892B85B91E
:1010900088B1612F62956695669563706095682347
:1010A000C295C695C695C370C62BC8B9D3CF1F705D
:1010B000F89498B1812F880F880F80958923C123D8
:1010C000CC0FCC0FC82BF1CF8F929F92AF92BF92D3
:1010D000CF92DF92EF92FF920F931F93CF93DF9304
:1010E000EB01843108F098C0082F10E0F801ED53AF
:1010F000FB4F9081933009F49CC0943009F08CC070
:101100008250823108F081C0F801E058FD4FC08064
:10111000D12C7601EE0CFF1C4B01603282E0780787
:101120000CF03EC0F701EC0DFD1DEF5CFA4F818124
:10113000A8E88A2E912C881A910887FD9394880C30
:10114000991C880C991C092C000CAA08BB088281E8
:1011500028E532E0281B310987FD3395220F331F24
:10116000220F331F032E000C440B550B281939098D
:101170004A095B09DB01653B710514F0A4EBB0E0A3
:10118000B7FF02C0B0E0A0E00E94A11724EB30E05E
:1011900040E050E00E947717820E931EA41EB51EF9
:1011A000F701EC0DFD1DEF5CFA4F20812C3068F546
:1011B000318188E890E0831B910937FD9395880F72
:1011C000991F880F991F881699067CF0328188E54F
:1011D00092E0831B910937FD9395880F991F880F23
:1011E000991F881699060CF4C4010297880F991F5D
:1011F0004FB7F89430E0F901EE0FFF1FE20FF31F35
:10120000E45FFA4F928381834FBF000F111FF801F3
:10121000E952FB4FD183C083DF91CF911F910F9192
:10122000FF90EF90DF90CF90BF90AF909F908F9006
:1012300008957B01D82F833041F08BEF800F8230EF
:1012400020F087EF800F833058F461E08D2F0E94EB
:10125000A901E114F10461F460E08D2F0E945D01A9
:10126000000F111FF801E952FB4FF182E082D4CF49
:101270008FEFE816F10411F461E0EFCFF801EC55BF
:10128000FF4FE491E33021F148F4E130B9F0E2306E
:10129000D1F080E8E816F1047CF7DECFE73011F1F9
:1012A000E83041F1E430A9F78091800080628093BA
:1012B0008000F0928B00E0928A00D2CF84B58068E3
:1012C00084BDE7BCCDCF84B5806284BDE8BCC8CF07
:1012D00080918000806880938000F0928900E09285
:1012E0008800BECF8091B00080688093B000E0920B
:1012F000B300B6CF8091B00080628093B000E092DE
:10130000B400AECF9EEF980F923180F4E82FF0E05A
:10131000DF01AD53BB4F9C91913041F4EE0FFF1FA5
:10132000E952FB4F608371830C945D010895FF9235
:101330000F931F93CF93DF9300D0CDB7DEB7082F65
:1013400010E0F801EA5EFC4F9081F62EF9220C566F
:101350001D4F411104C0F80190819F1511F12F2DEF
:1013600030E03A832983A0918004B09181041097E2
:10137000B1F0682F6F706069ED91FC911197019049
:10138000F081E02DCD01099522E030E0AE014F5F04
:101390005F4F62E070E080E894E00E946603F8012D
:1013A000F0820F900F90DF91CF911F910F91FF90DE
:1013B0000895833040F5282F30E0F901E75EFC4FB7
:1013C0006083672B01F12A5E3C4FF9016081811136
:1013D00006C099B19C7F692341E00C949709813044
:1013E00049F493B126B19F73F0E42F9F900111242B
:1013F000922BF1CF26B130E035952795359527957D
:101400002F706223E9CF0895A82FB0E0A058BD4FF8
:101410009C91292F30E0F901EE0FFF1FE20FF31F1F
:10142000EF5CFA4FE0812E2F30E0F901EE0FFF1F45
:10143000E20FF31FE45FFA4F80818F7B80838091FE
:101440007E02981308C0992319F0915090937E0260
:101450008FEF8C9308958823D9F3E0917F02EF5F9B
:10146000E0937F02F0E0E15DFD4F9083F1CFFC015E
:1014700001900020E9F73197BF01681B790BAC019F
:1014800081E70C946504CF93DF93DB0190917E029A
:101490009C3078F530917F02682F70E0FB01E058B6
:1014A000FD4F3323E1F0C32FD0E0C15DDD4F8881D4
:1014B0008083315030937F02808123E0829FC0017E
:1014C00011248F5C9A4F1A161B0674F41416150615
:1014D0005CF49A01AD01DF91CF910C940C079083DD
:1014E0009F5F90937E02E8CF20E639E040E252E031
:1014F000F2CF8DE291E0DF91CF910C94370A85ED28
:101500008093BC0080917B0390917C03A0917D032C
:10151000B0917E030796A11DB11D23E0B695A79556
:10152000979587952A95D1F72091BC0024FD03C09B
:1015300010927903089540917B0350917C03609150
:101540007D0370917E03452B462B472B69F3009753
:10155000A105B10541F02AE22A95F1F700C00197F3
:10156000A109B109E1CF80917A030C9470059F9293
:10157000AF92BF92CF92DF92EF92FF920F931F93A1
:10158000CF93DF93C82ED12CE601C05CDB4FFE0168
:10159000ED57FF4F90819F3709F49FC0963061F45B
:1015A00090919702992341F06630710529F01092CD
:1015B00097029FEF909300017B01182F0EEF080F09
:1015C000023108F564307105F1F0F601E058FD4F85
:1015D00080818C30C0F490E0FC01EE0FFF1FE80F1B
:1015E000F91FEF5CFA4FE0818E2F90E0FC01EE0FC7
:1015F000FF1FE80FF91FE45FFA4F808186FF03C0E9
:10160000812F0E94040A52EF952E910E85E08915D4
:1016100058F061E070E032E0E316F10411F070E0A0
:1016200060E0892D0E948B070231C8F4E12FE69516
:10163000E695E695F0E0EA5EFC4F2081312F3770A9
:1016400081E090E001C0880F3A95EAF7E114F104D7
:1016500021F03BE0E316F10401F5822B8083560173
:10166000AA0CBB1CF501E952FB4F118210828CE0E1
:10167000E816F10408F0CBC0F701EF5BF44F0C94CF
:10168000E617610B8E0B500BA50BC40B070CFB0B65
:10169000070C070C070C6D0B790B80958223DECFAE
:1016A00035E03915D0F0023120F460E0812F0E943E
:1016B000A901CD57DF4F88818F3779F082E0888389
:1016C0000CC0023150F460E0812F0E94A901CD5777
:1016D000DF4F88818F3709F01882DF91CF911F91FA
:1016E0000F91FF90EF90DF90CF90BF90AF909F90C1
:1016F0000895023190F762E0812F0E94A901CD5731
:10170000DF4F88818F3711F08BE08883F501E95234
:10171000FB4F81E090E091838083DFCF0231E8F6D8
:10172000FE01ED57FF4F8081833021F460E0812F6F
:101730000E945D0161E0812F0E94A901CD57DF4F1A
:1017400088818F3751F281E0BACF133049F08BEFA7
:10175000810F823028F087EF810F833008F0BDCFF2
:1017600061E0812F0E94A90161E0812F0E94A901FF
:1017700060E0812F0E945D01CD57DF4F88818F3758
:1017800009F4ABCF83E09BCF023108F0A6CFCD5751
:10179000DF4F88818F3711F084E08883F601E058AD
:1017A000FD4F80818F3FA9F090E0FC01EE0FFF1FFD
:1017B000E80FF91FEF5CFA4FE0818E2F90E0FC01FB
:1017C000EE0FFF1FE80FF91FE45FFA4F808186FDDF
:1017D00084CF4FEF5FEF6FEF7FEF812FDF91CF91DE
:1017E0001F910F91FF90EF90DF90CF90BF90AF903F
:1017F0009F900C94430A1251123008F06ECFCD57CF
:10180000DF4F88818F3709F468CF86E058CF81E4B5
:1018100091E0DF91CF911F910F91FF90EF90DF90BA
:10182000CF90BF90AF909F900C94370A0F931F9367
:10183000CF93DF9381E08093980280919702882371
:1018400029F0109297028FEF8093000110921903F4
:10185000109216031092940210921A03109217031A
:101860001092950210921B03109218031092960288
:1018700000E812E0C0E0DFEF82EF8C0F62E070E082
:10188000863030F08EEF8C0F823128F461E070E00A
:101890008C2F0E94B70AF801D1938F01CF5FC4311A
:1018A00059F7109245031092440310927F02109250
:1018B0007E0210929802DF91CF911F910F910895AF
:1018C0004F925F926F927F928F929F92AF92BF9250
:1018D000FF920F931F93CF93DF93F82E8B01D42F9A
:1018E000C22F6F3F760709F490C081E080937F0399
:1018F000F092A103109280031092A20380E095E081
:101900000E94DA068C2F0E94910580917C029091B2
:101910007D028230910538F0880F991F880F991F3A
:1019200005970197F1F70E94FA014B015C01809144
:10193000790381116CC0CD2FD13208F0C0E281E073
:1019400080937903809378039FEF909377031092AD
:1019500076039C0F909375038093540390915403E6
:101960008F2D880F892B80935403809153038130EE
:1019700009F0A1C0109253030E94FA014B015C01CF
:10198000809154038093BB0080917B0390917C03F2
:10199000A0917D03B0917E03892B8A2B8B2BA1F024
:1019A0000E94FA0140907B0350907C0360907D037D
:1019B00070907E03681979098A099B0946165706B3
:1019C0006806790608F444C08091BC0083FDD8CF36
:1019D00085EC8093BC000E94FA014B015C01809170
:1019E0007903813009F469C0809176038C1710F473
:1019F000C0917603E5E5F3E0AAE9B2E080E08C1758
:101A000061F191919D938F5FFACF00E08CCF80912F
:101A10007B0390917C03A0917D03B0917E03892B81
:101A20008A2B8B2B09F483CF0E94FA0140907B0311
:101A300050907C0360907D0370907E036819790953
:101A40008A099B09461657066806790608F06FCF83
:101A500080917A030E947005C0E01092BB02C0938F
:101A6000BA022D2F30E08C2F90E0281739070CF0A8
:101A700046C082E591E00E94370AF0923C02009352
:101A80003D020CE312E0AD2EB12CC8018C53924004
:101A90008A159B050CF041C00F5F1F4F9091BA0251
:101AA0008091BB029817C9F180E095E00E949306EF
:101AB000F8018183EACF85EE8CCF80917B039091F2
:101AC0007C03A0917D03B0917E03892B8A2B8B2B05
:101AD00009F485CF0E94FA0140907B0350907C036B
:101AE00060907D0370907E03681979098A099B09CB
:101AF000461657066806790608F071CFA9CF8217F7
:101B000093070CF0BACF8FE691E00E94370AD0918C
:101B1000BA028091BB02D81BB0CFDE5F6D2F70E0A0
:101B20004CE352E087E7DF91CF911F910F91FF9037
:101B3000BF90AF909F908F907F906F905F904F90ED
:101B40000C946504EF92FF920F931F93CF93DF9352
:101B50008956823108F033C0EA01162FE82FF0E0F1
:101B6000EC54F24F0C94E617FA0FDF0D610FDF0D06
:101B7000B90FDF0D3F0FE30EDF0DDF0DDF0DDF0DC2
:101B8000DF0DC60DDF0DA70EDF0D290F998195FF23
:101B90000AC08BE891E0DF91CF911F910F91FF90E8
:101BA000EF900C94370A888131E096FB222720F9C8
:101BB000232798719830D1F148F49923A9F0DF9147
:101BC000CF911F910F91FF90EF900895903109F4FC
:101BD0004CC09831A1F72091000112160CF472C08C
:101BE0008FEF80930001EBCF30937F038093A103AD
:101BF000109280031092A20302E0011778F4FE0114
:101C0000E00FF11D61816795662767958081680FF8
:101C100080E095E00E94DA060E5FEFCF81E00E943F
:101C2000910583E191E00197F1F7C9CF9A814B814A
:101C30006630A1F430E8439FB0011124690F711D93
:101C40004D814795442747959C81490FDF91CF915E
:101C50001F910F91FF90EF900C94600C47954427D3
:101C60004795490F6FEF7FEFF1CFE0910001E7302B
:101C70001CF08BEA91E08FCF3A819B816630D9F4DA
:101C800060E8969FA0011124430F511D9D819795F7
:101C9000992797953C81930FEF5FE093000135E022
:101CA000E302F0011124E45EFC4F80835283418300
:101CB0009383248384CF979599279795930F4FEF1C
:101CC0005FEFEACF90E0622F022E000C770B35E039
:101CD000492F50E06417750764F0349FF001359F79
:101CE000F00D1124E45EFC4F4081481719F09F5F0E
:101CF000EFCF90E085E0492F50E0641775071CF1A5
:101D00009830F8F4FA0131968E9FD0018F9FB00D74
:101D10001124A45EBC4F3C91849FF001859FF00D7F
:101D20001124E45EFC4F308311964D915C91129723
:101D30005283418313963C911397338314963C91BD
:101D400034839F5FD8CF21502093000138CF623079
:101D500078F0898160E8869F900111248881820F44
:101D6000932F911D009721F090937D0280937C0228
:101D700080919702811123CFC0E08EEE8C0F8230CC
:101D800028F466E070E08C2F0E94B70ACF5FC43160
:101D9000A1F781E0809397021092BB021092BA02E1
:101DA000109280031092A2030E94520581E896E0EF
:101DB0009093DE028093DD0282E896E09093E20247
:101DC0008093E102FCCE653008F4F9CE18818EEFE5
:101DD000810F823108F0F3CE0981EA80FB80CC814B
:101DE000E12FF0E0E058FD4F80818C30C0F490E0AE
:101DF000FC01EE0FFF1FE80FF91FEF5CFA4FE081C7
:101E00008E2F90E0FC01EE0FFF1FE80FF91FE45F3B
:101E1000FA4F808186FF03C0812F0E94040A80E868
:101E2000C89FA00111244F0D511D90E8E99EB001FB
:101E30001124600F711D812F0E94430A64E070E03D
:101E4000812FDF91CF911F910F91FF90EF900C9414
:101E5000B70A623008F4B3CE8981E0E88E9F900122
:101E600011248881820F932F911D009729F0909360
:101E7000020180930101A3CE81E090E0F8CF6230AF
:101E800008F49DCE698170E0123091F08A81F0E80B
:101E90008F9FC0011124682B792B133049F08B815F
:101EA00090E090E4899F902D88271124682B792B4E
:101EB0008881DF91CF911F910F91FF90EF900C944B
:101EC000640880EF0E9401018CE60E940101CEEFC0
:101ED00084EF8C0F863020F582E00E9401018AE0B9
:101EE0000E9401018DEF8C0F8230E0F089EF8C0FA2
:101EF0008330F0F417C0C23158F780E00E9401012E
:101F000081E00E9401018BE00E94010181E00E94BA
:101F1000010181E00E94010181E00E940101D8CF0E
:101F2000C13001F783E00E94010188E00E940101B5
:101F3000C23130F484E00E9401018EE00E94010170
:101F400080EF8C0F823030F486E00E94010181E046
:101F50000E9401018FE70E940101CF5FC23159F653
:101F600087EFDF91CF911F910F91FF90EF900C942D
:101F70000101662309F423CEC88180EF0E9401018C
:101F80008EE60E9401018C2F0E940101C43140F7AE
:101F9000D0E0FE01ED53FB4F80810E940101CC0F88
:101FA000DD1F8E0109521B4FF80180818F770E943F
:101FB0000101F801808191819C012078232B39F067
:101FC000880F892F881F990B8F770E940101C952B2
:101FD000DB4F888199819C012227307C232B09F4D7
:101FE000BFCF990F880B990F982F881F8F770E946A
:101FF0000101B6CF80EF0E9401018AE60E94010133
:10200000C2EF8FE7C63008F48C2F0E940101CF5F2A
:10201000C630B9F7A5CF1F920F920FB60F921124B9
:102020002F933F938F939F93AF93BF9380914B03D5
:1020300090914C03A0914D03B0914E0330914A030F
:1020400023E0230F2D3758F50196A11DB11D2093D4
:102050004A0380934B0390934C03A0934D03B0939A
:102060004E0380914F0390915003A0915103B09182
:1020700052030196A11DB11D80934F03909350030D
:10208000A0935103B0935203BF91AF919F918F9151
:102090003F912F910F900FBE0F901F90189526E83B
:1020A000230F0296A11DB11DD2CF1F920F920FB622
:1020B0000F9211242F933F934F935F936F937F93CE
:1020C0008F939F93AF93BF93EF93FF9383EA93E034
:1020D0000E94D702FF91EF91BF91AF919F918F9195
:1020E0007F916F915F914F913F912F910F900FBE14
:1020F0000F901F9018951F920F920FB60F921124F8
:102100002F938F939F93EF93FF93E091B303F091FD
:10211000B4038081E091B903F091BA0382FD1BC042
:1021200090818091BC038F5F8F732091BD038217D4
:1021300041F0E091BC03F0E0ED55FC4F958F8093AA
:10214000BC03FF91EF919F918F912F910F900FBE44
:102150000F901F9018958081F4CF1F920F920FB6A9
:102160000F9211240F900FBE0F901F9018951F9281
:102170000F920FB60F9211242F933F934F935F93BB
:102180006F937F938F939F93AF93BF93EF93FF933F
:102190008091B900887F803609F44AC0F0F5883212
:1021A00009F4A7C018F5803109F49BC0B8F488235E
:1021B00009F4F9C0883009F494C0FF91EF91BF9100
:1021C000AF919F918F917F916F915F914F913F91CF
:1021D0002F910F900FBE0F901F901895883109F422
:1021E00088C0803251F78093770314C0803409F49B
:1021F0009DC040F48033B9F38833F9F680937703B8
:1022000085ECB0C0803509F485C0883509F496C0E6
:10221000883499F60E947F0AD0CF883909F48CC09F
:1022200038F5883729F050F4883611F0803729F6D0
:1022300083E0809379031092030357C0883809F430
:102240007BC0803919F0803809F0B7CF8091030343
:10225000803208F071C0E091030381E08E0F80931B
:1022600003038091BB00F0E0ED51FD4F80833DC042
:10227000803B39F0E0F4803A09F479C0883A09F0FB
:102280009CCF84E0809379031092E0021092DF02E9
:10229000E091DD02F091DE0209958091DF0281116B
:1022A0000FC081E08093DF021092BD0209C0803C24
:1022B00009F4A6CF883C09F4A3CF883B09F07DCF71
:1022C000E091E00281E08E0F8093E002F0E0E354C1
:1022D000FD4F80818093BB009091E0028091DF02EE
:1022E00029C0809154038093BB0085EC8093BC008F
:1022F00064CF9091760380917503981758F5E0911B
:10230000760381E08E0F80937603F0E0EB5AFC4F6A
:102310008081E9CFE091760381E08E0F8093760390
:102320008091BB00F0E0EB5AFC4F808390917603E4
:10233000809175039817C8F285E8D8CFE0917603AD
:1023400081E08E0F809376038091BB00F0E0EB5A22
:10235000FC4F80838091780381115CCF81E0809372
:10236000530384EA8093BC001092790326CF85EC56
:102370008093BC001092790380910303803230F483
:10238000E0910303F0E0ED51FD4F108260910303F3
:1023900070E0E091E102F091E20283EE92E00995B3
:1023A000109203030ACF1092770334CF1F920F923B
:1023B0000FB60F9211242F933F934F935F936F9318
:1023C0007F938F939F93AF93BF93CF93DF93EF93BD
:1023D000FF9380919902C0913005D0E087FF24C01F
:1023E0001092850010928400809199028F5F8093F3
:1023F000990280919902082E000C990B8C179D0769
:1024000024F4809199028C30C4F1809184009091E1
:102410008500049680349C4908F47AC08091840039
:1024200090918500049676C080919902082E000C48
:10243000990B8C179D07C4F6E09199028E2FEE0F31
:10244000990BFC01EE0FFF1FE80FF91FE45FFA4F35
:10245000808186FFC9CFE09199028E2FEE0F990BF4
:10246000FC01EE0FFF1FE80FF91FE45FFA4F8081B8
:1024700060E08F730E945D01B7CF2091840030919E
:102480008500E09199028E2FEE0F990BFC01EE0F63
:10249000FF1FE80FF91FE45FFA4F81819281820FDD
:1024A000931F9093890080938800E09199028E2F6A
:1024B000EE0F990BFC01EE0FFF1FE80FF91FE45F11
:1024C000FA4F808186FF11C0E09199028E2FEE0FA6
:1024D000990BFC01EE0FFF1FE80FF91FE45FFA4FA5
:1024E000808161E08F730E945D01FF91EF91DF9128
:1024F000CF91BF91AF919F918F917F916F915F919C
:102500004F913F912F910F900FBE0F901F901895F4
:1025100080E49CE990938900809388008FEF8093FA
:102520009902E3CF1092A6031092A50348EE53E060
:1025300060E070E04093A7035093A8036093A90361
:102540007093AA038DE091E09093A4038093A3037A
:1025500085EC90E09093B0038093AF0384EC90E01F
:102560009093B2038093B10380EC90E09093B40316
:102570008093B30381EC90E09093B6038093B5030E
:1025800082EC90E09093B8038093B70386EC90E0E0
:102590009093BA038093B9031092BC031092BD03C9
:1025A0001092BE031092BF0380E494E01092810465
:1025B00010928004909384048093830420E430E09C
:1025C0003093860420938504109287041092880427
:1025D00010928A041092890410928B0410928D0438
:1025E00010928C0410928F0410928E041092910419
:1025F00010929004109293041092920410929504F9
:1026000010929404109297041092960410929904D8
:102610001092980410929F0410929E041092A104AC
:102620001092A0041092A3041092A2041092A50488
:102630001092A4041092B3041092B2041092820477
:102640001092C0041092C2041092C1041092FF04B0
:1026500027E830E03093A7042093A60421E930E076
:102660003093A9042093A8042BE930E03093AB0405
:102670002093AA0425EA30E03093AD042093AC0403
:102680002FEA30E03093AF042093AE0429EB30E022
:102690003093B1042093B00423EC30E03093B504C0
:1026A0002093B40424EC30E03093B7042093B604B4
:1026B00026E235E03093B9042093B80490939B044C
:1026C00080939A0422E532E03093BB042093BA044D
:1026D00090939D0480939C048FEC90E09093BD04B4
:1026E0008093BC04109203051092020540930405E8
:1026F0005093050560930605709307058FE191E0FF
:102700009093010580930005E1E3F5E02FEF48EB9E
:102710005BE0809130058C30B8F491E0980F909395
:102720003005808390E0DC01AA0FBB1FA80FB91F02
:10273000A45FBA4F12965C934E931197339685E03F
:10274000E535F80731F708952083F8CF789484B5FC
:10275000826084BD84B5816084BD85B5826085BD9D
:1027600085B5816085BD80916E00816080936E002B
:10277000109281008091810082608093810080911D
:1027800081008160809381008091800081608093CE
:1027900080008091B10084608093B1008091B0008E
:1027A00081608093B00080917A00846080937A0089
:1027B00080917A00826080937A0080917A008160B3
:1027C00080937A0080917A00806880937A001092DA
:1027D000C10085E18093C0048091C1049091C2043E
:1027E0000E948818C091C004D0E0CE0101960E94DA
:1027F000EC179093C2048093C104FC01EC0FFD1F01
:10280000108212E0DC011C9325E011962C93AE019E
:10281000425051096BE172E002960E94111984E660
:1028200098E0909311038093100388EB97E09093C6
:102830000F0380930E038BE897E090930D03809332
:102840000C0389ED99E090930B0380930A0387EBC7
:102850009AE0909309038093080382E899E09093AB
:1028600007038093060382EA9DE09093130380930D
:10287000120386E19CE09093150380931403E0918A
:10288000B303F091B4031083E091B303F091B40368
:102890001082E091AF03F091B0031082E091B10398
:1028A000F091B20380E180831092BB03E091B70303
:1028B000F091B80386E08083E091B503F091B60310
:1028C000808180618083E091B503F091B6038081BF
:1028D00088608083E091B503F091B60380818068C1
:1028E0008083E091B503F091B60380818F7D808372
:1028F0008091FF0481114FC061E08DE00E94A90129
:1029000062ED70E080E090E00E941F0261E08DE0E7
:102910000E945D0168E270E080E090E00E941F028A
:1029200060E08DE00E945D0162ED70E080E090E08B
:102930000E941F0261E08DE00E945D0168E270E08C
:1029400080E090E00E941F0260E08DE00E945D0147
:102950006AEF70E080E090E00E941F02C5E062ED47
:1029600070E080E090E00E941F0261E08DE00E9434
:102970005D0168E270E080E090E00E941F0260E08C
:102980008DE00E945D01C15051F76DE770E080E07D
:1029900090E00E941F0283EA93E09093BF0480932B
:1029A000BE04909381048093800480E894E00E94A8
:1029B000D70080E494E00E94B2040E94160C25E047
:1029C000D22EC0E0D0E0CC24C39402E010E0EE248C
:1029D000E394F12C80911903882349F069B1809127
:1029E000160368236C7F40E080E00E949709809185
:1029F0001A03882379F063B186B16F73B0E48B9FBB
:102A0000C0011124682B80911703682340E081E006
:102A10000E94970980911B03882359F066B1809129
:102A200018038F7066956695682340E082E00E94E7
:102A300097098091BE049091BF04DC01ED91FC9157
:102A40000084F185E02D0995892B09F4CEC1809190
:102A5000BE049091BF04DC01ED91FC910284F385EA
:102A6000E02D09959C018F3F980719F3982F8091CD
:102A70008B04882309F492C0973F09F07EC010921E
:102A80008B04A0918304B09184046C916137C1F1EF
:102A9000693709F05CC0E091B804F091B90430974F
:102AA00041F280918C0490918D048330910560F403
:102AB00030E020E050E040E070E060E080919A0477
:102AC00090919B040995B5CFBD016D5F7F4F039732
:102AD0000E943E01BC016D5F7F4F80E00E940E01AD
:102AE000E0918304F09184049F012D5F3F4F428168
:102AF00050E0618170E0E091B804F091B904DECF5C
:102B00008091B4049091B504892B09F492CFBD0152
:102B10006F5F7F4F80918C0490918D0401970E948C
:102B20003E01BC016F5F7F4F80E00E940E0160910B
:102B30008304709184046F5F7F4FE091B404F0913F
:102B4000B5048091A0049091A104099572CFE09101
:102B5000B604F091B704309709F46BCF9D012F5F55
:102B60003F4F40918C0450918D0441505109809108
:102B7000A2049091A30409955CCF60918C0470919C
:102B80008D04822F0E940E0180918C0490918D04FF
:102B9000019690938D0480938C044BCF60918904AF
:102BA00070918A046115710509F4B1C027FDAFC0A9
:102BB0006150710970938A0460938904822F0E9486
:102BC0000E018091890490918A04892B09F031CFFC
:102BD00080918704882309F42CCF803D09F483C0B9
:102BE00040F4803949F1803C09F469C010928704AF
:102BF00020CF843FE1F1853F09F44DC0803EB1F71D
:102C0000E091A604F091A704309781F3A09183048A
:102C1000B09184044C9120E8429FC0011124119688
:102C20004C91480F592F511D6091880480918E045A
:102C300090918F040995DACFE091A804F091A9044E
:102C40003097A1F2A0918304B09184044C9120E8C4
:102C5000429FC001112411964C91480F592F511DCC
:102C6000609188048091900490919104E3CFE09169
:102C7000AE04F091AF04309709F4B8CFA09183046B
:102C8000B09184044C9150E011966C91809196041F
:102C900090919704CFCFE091B004F091B1043097B8
:102CA00009F4A4CFA0918304B09184044C9150E026
:102CB00011966C918091980490919904BBCFE0910A
:102CC000AA04F091AB04309709F490CFA09183044B
:102CD000B09184044C9150E06091880480919204FA
:102CE00090919304A7CFE091AC04F091AD0430979C
:102CF00009F47CCFA0918304B09184044C9150E0FE
:102D000060918804809194049091950493CF903FB2
:102D100030F4822F8F7080938804922F907F903FA1
:102D2000F1F190F4903CB1F150F4903909F081CE7A
:102D300010938A0400938904909387047ACE903D7F
:102D400049F1903EA9F375CE993F09F442C028F4A9
:102D50008CE0890F823060F36CCE9F3F09F069CE22
:102D600010928A04109289041092870410928804A9
:102D700090E080E0209185043091860482179307CB
:102D8000A8F4E0918304F0918404E80FF91F108205
:102D90000196F0CFF0928A04E0928904CDCFC092E0
:102DA0008B0410928D0410928C0443CE10928B04ED
:102DB00010928D0410928C04E091BC04F091BD043B
:102DC0008091A4049091A504309709F432CE09951E
:102DD00030CEE091BA04F091BB04309709F429CECB
:102DE00080919C0490919D04F2CF8FB7F8948090CD
:102DF0004B0390904C03A0904D03B0904E038FBFB7
:102E00008091460390914703A0914803B0914903F4
:102E1000409101015091020170E060E0881A990A26
:102E2000AA0ABB0A481559056A057B0508F054C073
:102E3000840F951FA61FB71F8093460390934703E7
:102E4000A0934803B093490380E4882E84E0982E31
:102E500092EFB92E85E08B15C8F0F401ED57FF4FC6
:102E60008081823099F480914403909145030B2C2A
:102E700002C0959587950A94E2F780FF07C08B2DD5
:102E80000E94E501BC018B2D0E940504B394AFEFB5
:102E90008A1A9A0AB6E0BB12DDCF8091000187FD45
:102EA0001BC0B12C2B2D30E080910001082E000CAE
:102EB000990B8217930784F0D29EF001D39EF00DF8
:102EC0001124E45EFC4F6181728124814381808101
:102ED0000E94600CB394E6CF209709F47BCD0E944A
:102EE000C302882309F476CD0E94000073CD052E1D
:102EF00097FB1EF400940E948E1757FD07D00E9486
:102F0000A91707FC03D04EF40C948E1750954095EA
:102F1000309521953F4F4F4F5F4F08959095809585
:102F2000709561957F4F8F4F9F4F08950E94CB17EB
:102F3000A59F900DB49F900DA49F800D911D11240D
:102F40000895B7FF0C9496170E949617821B930B57
:102F50000895A1E21A2EAA1BBB1BFD010DC0AA1FDA
:102F6000BB1FEE1FFF1FA217B307E407F50720F0F2
:102F7000A21BB30BE40BF50B661F771F881F991F6D
:102F80001A9469F760957095809590959B01AC01B6
:102F9000BD01CF010895A29FB001B39FC001A39FBF
:102FA000700D811D1124911DB29F700D811D112482
:102FB000911D0895991B79E004C0991F961708F098
:102FC000961B881F7A95C9F780950895EE0FFF1F0D
:102FD0000590F491E02D09940F931F93CF93DF9305
:102FE0008230910510F482E090E0E0915705F09175
:102FF000580530E020E0B0E0A0E0309799F42115CA
:10300000310509F44AC0281B390B24303105D8F5A5
:103010008A819B816115710589F1FB01938382830C
:10302000FE0111C040815181028113814817590767
:10303000E0F04817590799F4109761F012960C9335
:10304000129713961C933296CF01DF91CF911F9167
:103050000F9108950093570510935805F4CF21154B
:10306000310551F04217530738F0A901DB019A01ED
:10307000BD01DF01F801C1CFEF01F9CF90935805F1
:1030800080935705CDCFFE01E20FF31F81939193FB
:103090002250310939832883D7CF209155053091AB
:1030A0005605232B41F42091050130910601309300
:1030B00056052093550520910301309104012115F7
:1030C000310541F42DB73EB74091070150910801F9
:1030D000241B350BE0915505F0915605E217F307D7
:1030E000A0F42E1B3F0B2817390778F0AC014E5F78
:1030F0005F4F2417350748F04E0F5F1F509356055A
:1031000040935505819391939FCFF0E0E0E09CCFF1
:10311000CF93DF930097E9F0FC013297138212827C
:10312000A0915705B0915805ED0130E020E01097CF
:10313000A1F420813181820F931F20915505309198
:1031400056052817390709F061C0F0935605E0933A
:103150005505DF91CF910895EA01CE17DF07E8F515
:103160004A815B819E0141155105B1F7E901FB835D
:10317000EA8349915991C40FD51FEC17FD0761F4FB
:10318000808191810296840F951FE901998388833C
:10319000828193819B838A83F0E0E0E012968D9197
:1031A0009C9113970097B9F52D913C911197CD0102
:1031B0000296820F931F20915505309156052817CE
:1031C000390739F6309751F5109258051092570586
:1031D000B0935605A0935505BCCFD383C2834081DD
:1031E0005181840F951FC817D90761F44E5F5F4F57
:1031F00088819981480F591F518340838A819B811F
:10320000938382832115310509F0B0CFF0935805DF
:10321000E09357059ECFFD01DC01C0CF13821282DF
:10322000D7CFFB01DC014150504048F001900D9296
:103230000020C9F701C01D9241505040E0F70895A9
:10324000F894FFCFFF130000005905800000000034
:1032500000F902590286024603B7029502A902004C
:10326000000000DA06AD0609078306A60693068469
:10327000064D617820736572766F73206174746196
:103280006368656400556E6B6E6F776E2070696E53
:10329000206D6F6465004932433A20546F6F206D92
:1032A000616E7920627974657320726563656976F1
:1032B0006564004932433A20546F6F206665772079
:1032C000627974657320726563656976656400313F
:1032D000302D6269742061646472657373696E670E
:1032E000206E6F7420737570706F727465640074F3
:1032F0006F6F206D616E79207175657269657300FD
:10330000433A5C55736572735C6C616D796A5C41BC
:103310007070446174615C4C6F63616C5C54656D8A
:10332000705C2E61726475696E6F4944452D756ECF
:1033300073617665643230323330352D3139393846
:10334000342D317869313176752E326433385C53DF
:1033500074616E646172644669726D6174615C531C
:1033600074616E646172644669726D6174612E6924
:043370006E6F00007C
:107E0000112484B714BE81FFF0D085E080938100F7
:107E100082E08093C00088E18093C10086E0809377
:107E2000C20080E18093C4008EE0C9D0259A86E02C
:107E300020E33CEF91E0309385002093840096BBD3
:107E4000B09BFECF1D9AA8958150A9F7CC24DD24C4
:107E500088248394B5E0AB2EA1E19A2EF3E0BF2EE7
:107E6000A2D0813461F49FD0082FAFD0023811F036
:107E7000013811F484E001C083E08DD089C08234E0
:107E800011F484E103C0853419F485E0A6D080C0E4
:107E9000853579F488D0E82EFF2485D0082F10E0AE
:107EA000102F00270E291F29000F111F8ED06801E7
:107EB0006FC0863521F484E090D080E0DECF843638
:107EC00009F040C070D06FD0082F6DD080E0C81688
:107ED00080E7D80618F4F601B7BEE895C0E0D1E017
:107EE00062D089930C17E1F7F0E0CF16F0E7DF06D8
:107EF00018F0F601B7BEE89568D007B600FCFDCFD4
:107F0000A601A0E0B1E02C9130E011968C91119780
:107F100090E0982F8827822B932B1296FA010C0160
:107F200087BEE89511244E5F5F4FF1E0A038BF0790
:107F300051F7F601A7BEE89507B600FCFDCF97BE46
:107F4000E89526C08437B1F42ED02DD0F82E2BD052
:107F50003CD0F601EF2C8F010F5F1F4F84911BD097
:107F6000EA94F801C1F70894C11CD11CFA94CF0C13
:107F7000D11C0EC0853739F428D08EE10CD085E9AC
:107F80000AD08FE07ACF813511F488E018D01DD067
:107F900080E101D065CF982F8091C00085FFFCCF94
:107FA0009093C60008958091C00087FFFCCF809118
:107FB000C00084FD01C0A8958091C6000895E0E648
:107FC000F0E098E1908380830895EDDF803219F02E
:107FD00088E0F5DFFFCF84E1DECF1F93182FE3DFCA
:107FE0001150E9F7F2DF1F91089580E0E8DFEE27F6
:047FF000FF270994CA
:027FFE00040479
:00000001FF
